:020000040800F2
:100000004010002045010008111C0008131C0008C6
:10001000171C00081B1C00081F1C00080000000023
:10002000000000000000000000000000231C000889
:10003000251C000800000000271C0008291C0008DF
:100040005F0100085F0100085F0100085F01000810
:100050005F0100085F0100085F0100085F01000800
:100060005F0100085F0100085F0100085F010008F0
:100070005F0100085F0100085F0100085F010008E0
:100080005F0100085F0100085F0100085F010008D0
:100090005F0100085F0100085F0100085F010008C0
:1000A0005F0100085F0100085F0100085F010008B0
:1000B0005F0100085F0100085F0100085F010008A0
:1000C0005F0100085F0100085F0100085F01000890
:1000D0005F0100082B1C00085F0100089D1C000840
:1000E0005F0100085F0100085F0100085F01000870
:1000F0005F0100085F0100085F0100085F01000860
:100100005F0100085F0100085F0100085F0100084F
:100110005F0100085F0100085F0100085F0100083F
:100120005F0100085F0100085F0100085F0100082F
:10013000DFF80CD002F07CFD00480047A31800084F
:10014000401000200648804706480047FEE7FEE7CB
:10015000FEE7FEE7FEE7FEE7FEE7FEE7FEE7FEE777
:1001600047020008310100080CB500200190009002
:100170006C48006840F480306A49086000BF6948F4
:10018000006800F4003000900198401C0190009835
:1001900018B90198B0F5A06FF1D16248006800F479
:1001A000003010B10120009001E000200090009884
:1001B000012843D15C48006840F010005A490860AB
:1001C0000846006820F0030008600846006840F018
:1001D0000200086053484068524948600846406839
:1001E00048600846406840F48060486008464068BF
:1001F00020F47C1048600846406840F4E8104860ED
:100200000846006840F08070086000BF45480068FC
:1002100000F000700028F9D04248406820F0030048
:10022000404948600846406840F00200486000BF0E
:100230003C48406800F00C000828F9D10CBD10B50E
:10024000FFF792FF10BD10B53648006840F001007E
:1002500034490860084640683449084031494860DC
:1002600008460068324908402E4908600846006880
:1002700020F4802008600846406820F4FE004860B2
:100280004FF41F008860FFF7DAFF4FF00060294944
:10029000086010BD10B5002100200022214B5B68D2
:1002A00003F00C0121B1042906D0082928D107E068
:1002B000214B224C236027E01F4B204C236023E07E
:1002C000184B5B6803F47010164B5B6803F48032C4
:1002D000022303EB904022B9194B4343174C236090
:1002E0000DE0104B5B6803F4003323B1144B434320
:1002F000124C236003E0104B4343104C236003E097
:100300000D4B0E4C236000BF00BF064B5B68C3F370
:1003100003130C4CE15C094B1B68CB40074C23607A
:1003200010BD000000100240002002400000FFF855
:10033000FFFFF6FE08ED00E000127A00000000204A
:1003400000093D000400002031490143314A116099
:10035000704770B5002100230F22C47804B32D4CE0
:10036000246804F4E064C4F5E064210AC1F10403E4
:10037000CA40447804FA03F1847814402143090107
:10038000254C0678A155047804F01F050124AC40E3
:1003900005786D11AD0005F1E025C5F8004109E0D3
:1003A000047804F01F050124AC401C4D067876113A
:1003B00045F8264070BD1A4A0A400243154B1B1FE0
:1003C0001A60704739B1134A121D12680243114B6B
:1003D0001B1D1A6006E00F4A121D126882430D4B66
:1003E0001B1D1A607047042808D14FF0E0210969ED
:1003F00041F004014FF0E022116107E04FF0E021ED
:10040000096921F004014FF0E022116170470000FA
:100410000000FA050CED00E000E400E080E100E0FF
:1004200080FFFF1F10B50446CC48844208D101214B
:10043000042000F02DFB0021042000F029FB46E001
:10044000C748844208D10121082000F021FB002187
:10045000082000F01DFB3AE0C248844208D1012187
:10046000102000F015FB0021102000F011FB2EE001
:10047000BD48844208D10121202000F009FB002161
:10048000202000F005FB22E0B848844208D1012179
:10049000402000F0FDFA0021402000F0F9FA16E0BB
:1004A000B348844208D10121802000F0F1FA0021F4
:1004B000802000F0EDFA0AE0AE48844207D1012125
:1004C000801500F0E5FA0021A01500F0E1FA10BD5A
:1004D00010B50121084600F0DBFA0021012000F0F0
:1004E000D7FA10BD2DE9F041024600250026002074
:1004F00000230024002791F803C00CF00F0591F8A9
:1005000003C00CF0100CBCF1000F03D091F802C036
:100510004CEA050591F800C0BCF1000F31D0146819
:1005200000202BE04FF0010C0CFA00F3B1F800C0F2
:100530000CEA03069E4220D183004FF00F0C0CFA08
:1005400003F7BC4305FA03FC4CEA040491F803C02A
:10055000BCF1280F06D14FF0010C0CFA00FCC2F8D8
:1005600014C00AE091F803C0BCF1480F05D14FF068
:10057000010C0CFA00FCC2F810C0401C0828D1D3B2
:100580001460B1F800C0BCF1FF0F34DD54680020E6
:100590002EE000F1080C4FF0010808FA0CF3B1F856
:1005A00000C00CEA03069E4221D183004FF00F0CDD
:1005B0000CFA03F7BC4305FA03FC4CEA040491F877
:1005C00003C0BCF1280F05D100F1080C08FA0CF8A3
:1005D000C2F8148091F803C0BCF1480F07D100F1B4
:1005E000080C4FF0010808FA0CF8C2F81080401C03
:1005F0000828CED35460BDE8F0814FF6FF7101802A
:10060000022181700421C170704702460020936866
:100610000B400BB1012000E00020704701468868C4
:1006200080B2704702460020D3680B400BB1012016
:1006300000E0002070470146C86880B27047016141
:100640007047416170470AB1016100E04161704744
:10065000C16070474FF480320A43826181618261D8
:1006600082698269704702460020434B18684FF642
:100670008073184040EA021008433F4B18607047EF
:100680003E49C8617047F0B50A46002300240021A6
:10069000002500F00046B6F1004F02D1364EF16958
:1006A00001E0354E7168C0F3034583B200F4401693
:1006B000B6F5401F08D121F070612F4E766826F004
:1006C00070662D4F7E6012E000F48016B6F5801F34
:1006D00006D1032606FA05F4A14341F0706106E055
:1006E000460D360103FA06F6B14341F0706122B1BE
:1006F000460D360103FA06F6314300F00046B6F126
:10070000004F02D11C4EF16101E01B4E7160F0BD43
:1007100030B500228B071C0F0F2303FA04F2164B8F
:1007200008338C1053F824309343134C08348D1045
:1007300044F8253023468C1053F824308C07240FBE
:1007400000FA04F423430C4C08348D1044F825308F
:1007500030BD0A49DC3108607047000000080140E4
:10076000000C01400010014000140140001801403D
:10077000001C014000200140000001400000204218
:10078000DF48006840F00100DD4908600846406825
:10079000DC490840DA49486008460068DA49084000
:1007A000D74908600846006820F4802008600846A1
:1007B000406820F4FE0048604FF41F0088607047D6
:1007C000CF49096821F48031CD4A1160114609688A
:1007D00021F480211160B0F5803F03D0B0F5802F67
:1007E0000ED106E0C649096841F48031C44A11605F
:1007F00007E0C349096841F4A021C14A116000E043
:1008000000BF00BF704710B5014600220023002042
:100810004A11012A02D1BA4C236806E0022A02D109
:10082000B74C236A01E0B64C636A01F01F02012451
:1008300094401C400CB1012000E0002010BD38B5F0
:10084000002000900024002500BF3120FFF7DBFFCF
:1008500005460098401C00900098B0F5A06F01D0AC
:10086000002DF2D03120FFF7CEFF08B1012400E0C7
:100870000024204638BD01460020A14A106820F01F
:10088000F80040EAC10010607047A0490860704756
:10089000024600209A4B586820F47C1042EA01037B
:1008A0001843974B5860704798490866704701464F
:1008B0000020934A506820F00300084350607047BE
:1008C0008F48406800F00C007047014600208C4AB9
:1008D000506820F0F0000843506070470146002047
:1008E000874A506820F4E060084350607047014632
:1008F0000020834A506820F4605040EAC1005060F4
:10090000704729B17E4A527A02437D4B5A7204E005
:100910007B4A527A82437A4B5A7270477B49D8316C
:100920000860704701460020754A506820F4404036
:100930000843506070470021714A20321170704A9C
:1009400082F82010012802D004280AD104E00121F5
:100950006B4A2032117005E00521694A203211707E
:1009600000E000BF00BF70476949086070476449F4
:10097000096A0143624A1162704765494439086057
:10098000704730B500210022002400235C4D6D68C3
:1009900005F00C0121B1042905D0082923D105E077
:1009A0005C4D056022E05B4D05601FE0544D6D68B5
:1009B00005F47012524D6D6805F48034022505EB84
:1009C00092421CB9544D554305600BE04C4D6D6887
:1009D00005F400351DB1504D5543056002E04D4D05
:1009E0005543056002E04B4D056000BF00BF444D1C
:1009F0006D6805F0F0010909484D6B5C0568DD4044
:100A000045603F4D6D6805F4E061090A434D6B5C3C
:100A10004568DD4085603A4D6D6805F46051C90A4E
:100A20003E4D6B5C4568DD40C560354D6D6805F435
:100A30004041890B3A4D6B5CC568B5FBF3F5056128
:100A400030BD29B12E4A526902432D4B5A6104E050
:100A50002B4A526982432A4B5A61704729B1284A6E
:100A600092690243264B9A6104E0254A92698243C7
:100A7000234B9A61704729B1214AD2690243204B26
:100A8000DA6104E01E4AD26982431D4BDA61704785
:100A900029B11B4AD2680243194BDA6004E0184AB4
:100AA000D2688243164BDA60704729B1144A126942
:100AB0000243134B1A6104E0114A12698243104B3E
:100AC0001A61704712494039086070470F49C8647D
:100AD00070470B49C87170470948406A40F0807000
:100AE00007494862704701460020054A92680A405B
:100AF0000AB1012000E00020704701498872704768
:100B0000001002400000FFF8FFFFF6FE0000424226
:100B10008004424200127A0000093D0014000020C7
:100B20002400002010B50446FB48844209D101216D
:100B30008803FFF7ADFF00214FF48040FFF7A8FFC7
:100B400032E0F648844209D101214804FFF7ADFFA5
:100B500000214FF40030FFF7A8FF25E0F048844261
:100B600009D101218804FFF7A0FF00214FF4802064
:100B7000FFF79BFF18E0EB48844209D10121C8042C
:100B8000FFF793FF00214FF40020FFF78EFF0BE0EB
:100B9000E548844208D101210805FFF786FF0021BE
:100BA0004FF48010FFF781FF10BD2DE9F04786B0AC
:100BB00005460E460024A24600BFA1460027B08984
:100BC00000B100BF2F462C8A4CF6FF700440F0881D
:100BD00004432C82AC894EF6F3100440B08831896E
:100BE0000843718908430443AC81AC8A4FF6FF4047
:100BF0000440B0890443AC8201A8FFF7C2FEC64896
:100C0000874202D1DDF810A001E0DDF80CA0A88930
:100C100000F4004040B10AEBCA0000EB0A10316852
:100C20004900B0FBF1F807E00AEBCA0000EB0A103C
:100C300031688900B0FBF1F86420B8FBF0F00401E2
:100C40002009642101FB1089A88900F4004040B10B
:100C5000322000EBC900B0FBF1F000F007000443C4
:100C600008E0322000EB09106421B0FBF1F000F045
:100C70000F0004432C8106B0BDE8F0874FF41651F5
:100C8000016000218180C18001810C21418100210E
:100C90008181704710B502460020108A4FF2FF0391
:100CA00018400B884C8823438C882343CC882343EB
:100CB0001843108210BD0021018041808180C180D5
:100CC000704721B1828942F40052828104E0828916
:100CD0004DF6FF731A4082817047F0B50346002439
:100CE00000260025002040F66A17B94200D100BF57
:100CF0001846C1F3421401F01F06012707FA06F552
:100D0000012C01D10C3004E0022C01D1103000E0A4
:100D100014301AB107682F43076002E00768AF4339
:100D20000760F0BD1AB1838A0B43838202E0838A95
:100D30008B4383827047028A4FF6F0731A40028217
:100D4000028A0A430282704782894FF2FF731A4077
:100D5000828182890A438281704721B1828942F06F
:100D60000202828104E082894FF6FD731A4082817B
:100D70007047028A4FF6DF731A400282028A0A43E2
:100D80000282704721B1028A42F48042028204E06A
:100D9000028A4BF6FF731A4002827047C1F30802C1
:100DA0008280704701468888C0F3080070478189B7
:100DB00041F0010181817047028BD2B20283028B24
:100DC00042EA012202837047028B02F47F420283CF
:100DD000028B0A430283704721B1828A42F02002CB
:100DE000828204E0828A4FF6DF731A408282704763
:100DF00021B1828A42F01002828204E0828A4FF698
:100E0000EF731A408282704721B1828A42F0080251
:100E1000828204E0828A4FF6F7731A40828270471A
:100E200021B1828942F40042828103E08289C2F3C7
:100E30000E028281704721B1828A42F4006282826E
:100E400004E0828A4FF2FF731A4082827047828ADE
:100E50004FF6FB731A408282828A0A43828270476D
:100E600021B1828A42F00202828204E0828A4FF635
:100E7000FD731A408282704702460020B1F5007F60
:100E800000D100BF13880B400BB1012000E000200F
:100E9000704701F40072B2F5007F00D100BFCA4371
:100EA0000280704770B50246002400230025002010
:100EB00040F66A16B14200D100BFC1F3421501F0FD
:100EC0001F03012606FA03F3012D02D19689334050
:100ED00006E0022D02D1168A334001E0968A3340A3
:100EE0000C12012606FA04F41688344013B10CB132
:100EF000012000E0002070BD10B50022002340F664
:100F00006A14A14200D100BF0A1201249440A3B286
:100F1000DC43048010BD0000003801400044004064
:100F200000480040004C00400050004070B50646AC
:100F30000D462946304601F0C9FC04460CB9002094
:100F400070BD284601F0D4FC0444FEA1204601F007
:100F5000BDFC04460CB90020F2E7641C00E0641CF0
:100F600020782028FBD020782228F8D02046E7E7F8
:100F700010B50346002003E01C5C0C54441CE0B296
:100F80001C5C5CB11C5C222C08D01C5C0D2C05D0B8
:100F90001C5C0A2C02D0541E8442EDDC00240C544C
:100FA00010BD10B50346002003E01C5C0C54441C2B
:100FB000E0B21C5C74B11C5C222C0BD01C5C5C2C61
:100FC00008D01C5C0D2C05D01C5C0A2C02D0541ED1
:100FD0008442EADC00240C5410BD70B59CB0054678
:100FE000D9A1284601F072FC0446002C70D0A41D43
:100FF00040220CA92046FFF7BBFF06A807A908AAB4
:1010000009ABCDE90132CDE9031005A80AAB0BAA63
:10101000CFA100900CA801F081FC062873D108989C
:10102000083008900898182805DB089818380890A8
:101030000A98401C0A90CDA001F0BCFF0CA9D6A0D4
:1010400001F0B8FFD8A105A801F059FC08B90120AA
:1010500047E0D6A105A801F052FC08B9022040E003
:10106000D3A105A801F04BFC08B9032039E0D1A1B8
:1010700005A801F044FC08B9042032E0CEA105A87F
:1010800001F03DFC08B905202BE0CCA105A801F03A
:1010900036FC08B9062024E0C9A105A801F02FFC00
:1010A00008B907201DE0C7A105A801F028FC08B970
:1010B000082016E0C4A105A801F021FC08B9092008
:1010C0000FE0C2A105A801F01AFC10B90A2008E03F
:1010D00021E0BFA105A801F012FC08B90B2000E037
:1010E0000C200646DDE907210698CDE900120290A2
:1010F0003246B8A0DDE9091301F05CFFC2A001F09F
:1011000059FF0BE0FFE70CA9CAA001F053FFCFA0E5
:1011100001F050FF02E0D6A001F04CFFDCA1284610
:10112000FFF704FF044644B140220CA92046FFF714
:1011300038FF0CA9D9A001F03DFFDCA001F03AFF77
:101140001CB070BD70B5A4B00646E34AD2E90131C7
:101150001068D268CDE92131239220904022DE49E7
:10116000103110A801F08EFBDB4B5033D3E9002087
:10117000D3E902130DAC0BC40C92D74B60330FCBE9
:1011800008AC0FC42022D4497031684601F07AFBC4
:10119000D2A13046FFF7CAFE044624B1102220A98E
:1011A0002046FFF7FEFED0A13046FFF7BFFE044603
:1011B00024B1102208A92046FFF7F3FECEA1304645
:1011C000FFF7B4FE044624B110220CA92046FFF715
:1011D000E8FECCA1304601F079FB054685B1CDA1F2
:1011E000284601F073FB044654B1CAA12846FFF714
:1011F0009DFE044624B1402210A92046FFF7D1FEEF
:10120000C6A13046FFF792FE044624B1202269466B
:101210002046FFF7C6FEC5A001F0CCFECEA001F02F
:10122000C9FE08AA20A9D2A001F0C4FE10A9D9A025
:1012300001F0C0FE0CA9DCA001F0BCFE6946E0A0F4
:1012400001F0B8FE99A001F0B5FE24B070BD10B554
:101250009AB0E248007809286CD2DFE800F0050671
:10126000317271706F6E6D0018E3DD48B0F80004E4
:101270006FF30E00DA49A1F800040846B0F8000444
:1012800020F40040A1F80004D64800688388D548BF
:101290000068D5A1026801A801F09CFE01A9D94807
:1012A00000F0C2FD0220CD4908700020D649087028
:1012B000D64908804FF48061D54801F0FCFAEDE290
:1012C000C748B0F80004C00B002834D00020C4493F
:1012D000B1F80014C1F30E01C14A5054CDA110461B
:1012E00001F0F4FA20B9CCA1BD4801F0EFFA30B119
:1012F000CDA001F05FFE0320B84908700AE0D0A13C
:10130000B74801F0E3FA28B1CFA001F053FE08205E
:10131000B2490870B249D3A001F04CFEB048B0F811
:1013200000046FF30E00AE49A1F800040846B0F8BF
:10133000000499E1B1E29CE1A4E289E22CE21BE223
:10134000CFE1A9E13A000000446174653A20000051
:1013500025337320253264202533732025346420FF
:101360002532643A2532643A253264000D0A3D3D47
:101370003D3D3D3D3D3D3D3D3D204E6574776F72A9
:101380006B2054696D65203D3D3D3D3D3D3D3D3DFE
:101390003D3D0D0A000000002020474D5420202034
:1013A000203A2025730D0A004A616E0046656200EE
:1013B0004D617200417072004D6179004A756E0096
:1013C0004A756C0041756700536570004F63740087
:1013D0004E6F760020204265696A696E673A202563
:1013E0003034642D253032642D2530326420253090
:1013F00032643A253032643A2530326420286170F4
:1014000070726F78290D0A0020204E6F74652020BD
:10141000203A2044617920726F6C6C6F766572207F
:101420006E6F742068616E646C6564207965740DFC
:101430000A0000005B54494D455D2052617720440D
:101440006174653A2025730D0A0000005B54494D14
:10145000455D204265696A696E67203D20474D54AD
:10146000202B203820686F7572730D0A0000000071
:101470005B54494D455D204E6F2044617465206882
:10148000656164657220666F756E640D0A00000008
:10149000226F726967696E220000000020204950A7
:1014A00020202020203A2025730D0A003D3D3D3D9F
:1014B0003D3D3D3D3D3D3D3D3D3D3D3D3D3D3D3D5C
:1014C0003D3D3D3D3D3D3D3D3D3D3D3D3D3D3D3D4C
:1014D0000D0A0D0A00000000803300082274656DBB
:1014E000705F432200000000224665656C734C6902
:1014F0006B654322000000002268756D69646974A1
:1015000079220000227765617468657244657363AF
:10151000220000002276616C756522002277696ED8
:101520006473706565644B6D706822000D0A3D3D03
:101530003D3D3D3D3D3D3D3D3D2057656174686508
:1015400072205265706F7274203D3D3D3D3D3D3DC2
:101550003D3D3D0D0A0000002020436974792020A4
:1015600020202020203A20586927616E0D0A0000B3
:10157000202054656D70657261747572653A20251E
:1015800073204320286665656C73202573204329EA
:101590000D0A0000202057656174686572202020C4
:1015A000203A2025730D0A00202048756D69646972
:1015B00074792020203A20257325250D0A0000008B
:1015C000202057696E64205370656564203A202599
:1015D00073206B6D2F680D0A0000000030000020A2
:1015E000380400202C00002041542B434950535410
:1015F0004152543D22544350222C222573222C2543
:10160000640D0A0000480040310000203200002034
:10161000380000204F4B0000414C524541445920B6
:10162000434F4E4E454354005B485454505D205444
:10163000435020436F6E6E656374204F4B0D0A005C
:101640004552524F520000005B485454505D2054A4
:10165000435020436F6E6E656374204641494C0DC4
:101660000A0000002573000020F40040A1F80004E7
:1016700011E0D54801F0DAF8D4480078401CD3498D
:101680000870084600783C2805DDD1A001F092FCE6
:101690000820D749087001E1D648B0F800046FF37C
:1016A0000E00D449A1F800040846B0F8000420F464
:1016B0000040A1F80004D0490968886801F018F9D1
:1016C00004462246CDA112A801F084FC12A9CF48FD
:1016D00000F0AAFB0420C64908700020BB4908702E
:1016E000DCE0C448B0F80004C00B88B30020C14956
:1016F000B1F80014C1F30E01BE4A5054C4A1104603
:1017000001F0E4F818B10520B94908700BE0AFF218
:10171000D001B84801F0DAF828B1BEA001F04AFCC7
:101720000820B3490870B349AFF2C80001F042FC89
:10173000B048B0F800046FF30E00AE49A1F8000401
:101740000846B0F8000420F40040A1F8000412E0BC
:10175000FFE79D4801F06AF89C480078401C9B49CF
:101760000870084600781E2805DDB0A001F022FCB4
:1017700008209F49087091E09F4800688168A3484D
:1017800000F052FB06209A49087000208F4908702B
:10179000ADA001F00FFC81E09648B0F80004C00B4A
:1017A000002842D09348B0F80004C0F30E04002093
:1017B00090490855AFF2541001F0FCFBA84800888E
:1017C000204440F2FF31884211DAA649A44A128827
:1017D00088182246874901F055F8A148008820441E
:1017E0009F49088000209F499D4A128888549EA1E5
:1017F000804801F06BF828B19DA001F0DBFB0720C9
:101800007B4908707B48B0F800046FF30E007949FB
:10181000A1F800040846B0F8000420F40040A1F844
:10182000000400206949087011E0674800F0FEFFDD
:1018300066480078401C65490870084600786428AE
:1018400005DD91A001F0B6FB08206949087025E08C
:1018500094A001F0AFFB9A480078012803D1814899
:10186000FFF7BBFB06E096480078022802D17D48CE
:10187000FFF768FC0020924908705F4908605C49E6
:1018800008700BE08FA001F095FB00208C490870D8
:10189000594908605649087000E000BF00BF1AB0FF
:1018A00010BD00F050FA00F0AFFF00F08FFB8BA0EE
:1018B00001F080FB93A001F07DFB9CA001F07AFB7E
:1018C000A5A001F077FB7DE0AC48B0F80004012151
:1018D000B1EBD03F50D10020A849B1F80014C1F3BA
:1018E0000E01A64A5054A6A1104600F0EFFF60B1C9
:1018F000012073490870A4483F49086001203C4911
:101900000870A2A001F056FB27E0A9A19B4800F0B7
:10191000DDFF60B102206A490870A74836490860B7
:10192000012033490870A5A001F044FB15E0ACA1EB
:10193000924800F0CBFF60B10120614908709248E5
:101940002D49086001202A490870A7A001F032FB48
:1019500003E08A492D4800F067FA8848B0F800048F
:101960006FF30E008549A1F800040846B0F80004A2
:1019700020F40040A1F800041D48007810B1FFF7E2
:1019800066FC1FE01B48B0F80004C00BD0B100207B
:101990001849B1F80014C1F30E01164A505411460B
:1019A0009A4800F041FA1348B0F800046FF30E00B3
:1019B0001049A1F800040846B0F8000420F40040E3
:1019C000A1F8000480E70000A0860100310000209B
:1019D0005B485454505D2054435020436F6E6E65F5
:1019E00063742054696D656F75740D0A0000000002
:1019F00030000020380400202C00002041542B43EC
:101A0000495053454E443D25640D0A0000480040AE
:101A10003E0000005B485454505D204349505345FC
:101A20004E44204572726F720D0A00005B48545498
:101A3000505D205761697420223E222054696D65F3
:101A40006F75740D0A0000005B485454505D2052BD
:101A50006571756573742053656E740D0A0000001E
:101A60003200002038000020434C4F534544000012
:101A70000D0A2D2D2D204854545020446F6E6520A2
:101A80002D2D2D0D0A0000005B485454505D20524E
:101A90006573706F6E73652054696D656F75740D35
:101AA0000A0000005B485454505D20526571756512
:101AB000737420535543434553530D0A00000000EF
:101AC000280000205B485454505D205265717565B4
:101AD0007374204641494C45440D0A000D0A3D3DB2
:101AE0003D2053544D333220576561746865722030
:101AF000262054696D6520436C6F636B203D3D3D2E
:101B00000D0A0000415420636F6D6D616E64732097
:101B10002D3E206D616E75616C20636F6E74726F07
:101B20006C20455350383236360D0A002254494D48
:101B30004522202D3E20476574206E6574776F72B4
:101B40006B2074696D6520286874747062696E2EEC
:101B50006F7267290D0A0000225745415422202D3B
:101B60003E20476574207765617468657220287728
:101B70007474722E696E290D0A0D0A003A0800204D
:101B800054494D4500000000683300085B48545438
:101B9000505D203D3D3D2054696D65205461736B5F
:101BA000205374617274203D3D3D0D0A0000000019
:101BB0005745415400000000743300085B485454FA
:101BC000505D203D3D3D205765617468657220542D
:101BD00061736B205374617274203D3D3D0D0A00AA
:101BE00048545450000000005B485454505D20534A
:101BF00074617465204D616368696E65205374611A
:101C00007274202854696D65290D0A00003801405E
:101C1000704700BFFEE700BFFEE700BFFEE700BF62
:101C2000FEE7704770477047704710B540F2255186
:101C30003748FFF737F9D8B13548FFF7B3F8C4B2E2
:101C40003448B0F80004C0F30E0040F2FF3188427F
:101C50000EDA3049B1F80014C1F30E00411C2D4AD0
:101C6000B2F8002461F30E022A49A1F800240C54B2
:101C700040F224412648FFF715F901280DD12548E7
:101C8000B0F8000420F4004000F500402149A1F81C
:101C900000041F48FFF786F8C4B210BD10B540F22B
:101CA00025511D48FFF7FEF8D8B11B48FFF77AF819
:101CB000C4B21A48B0F80004C0F30E0040F2FF317D
:101CC00088420EDA1549B1F80014C1F30E00411C28
:101CD000124AB2F8002461F30E021049A1F8002460
:101CE0000C5440F224410C48FFF7DCF801280DD1D8
:101CF0000A48B0F8000420F4004000F5004007490D
:101D0000A1F800040448FFF74DF8C4B210BD00006C
:101D1000003801403A080020004800403804002004
:101D200008B54FF4A060FEF70FFB25208DF80000EA
:101D300001208DF801008DF802008DF8030068463F
:101D4000FEF707FB08BD00B585B001210420FEF7B2
:101D500085FE01218803FEF781FE4FF40070ADF887
:101D6000100018208DF8130003208DF8120004A92C
:101D70005548FEF7B7FB4FF48060ADF81000042023
:101D80008DF8130004A95048FEF7ACFB4FF4E13086
:101D900000900020ADF80400ADF80600ADF8080092
:101DA000ADF80C000C20ADF80A0069464748FEF774
:101DB000FCFEFFF7B5FF012240F225514348FEF734
:101DC0008CFF012240F224414048FEF786FF0121AA
:101DD0003E48FEF776FF05B000BD70B504460D46DF
:101DE00029462046FEF7DAFF00BF80212046FFF794
:101DF00043F80028F9D070BD2DE9F04107460D46A3
:101E00001646002405E0295D3846FFF7E6FF601C12
:101E1000C4B2B442F7DB00BF40213846FFF72CF8CC
:101E20000028F9D0BDE8F08170B506460C460025C3
:101E300000BF615D3046FFF7D0FF6D1C605D00287C
:101E4000F7D100BF40213046FFF716F80028F9D03F
:101E500070BD2DE9F04105460C46260AE7B2314631
:101E60002846FEF79BFF00BF80212846FFF704F8B5
:101E70000028F9D039462846FEF790FF00BF8021A0
:101E80002846FEF7F9FF0028F9D0BDE8F08170B5CB
:101E900004460D46E1B20D48FEF780FF00BF8021E9
:101EA0000A48FEF7E9FF0028F9D0204670BD10B5BA
:101EB000044600BF20210548FEF7DEFF0028F9D0C8
:101EC0000248FEF76FFF10BD0008014000380140D6
:101ED00008B54FF4A060FEF737FA27208DF8000010
:101EE00000208DF801008DF8020001208DF803001C
:101EF0006846FEF72EFA08BD00B585B001218804BA
:101F0000FEF7B9FD01210820FEF7A8FD4FF480601F
:101F1000ADF8100018208DF8130003208DF8120082
:101F200004A9F748FEF7DEFA4FF40060ADF81000A0
:101F300004208DF8130004A9F148FEF7D3FA4FF4FA
:101F4000E13000900020ADF80400ADF80600ADF8D7
:101F50000800ADF80C000C20ADF80A006946E9480D
:101F6000FEF723FE012240F22551E648FEF7B5FEBA
:101F7000012240F22441E348FEF7AFFEFFF7A8FF3D
:101F80000121E048FEF79DFE05B000BD08B5012126
:101F90000820FEF763FD4FF48070ADF800001020BC
:101FA0008DF8030003208DF802006946D448FEF73F
:101FB00099FA01210820FEF751FD4FF40070ADF8A9
:101FC00000006946CE48FEF78DFA08BD10B5FFF750
:101FD000DDFFFFF791FF4FF40071C948FEF72FFBBB
:101FE0004FF48071C648FEF72AFB10BD10B54FF4C0
:101FF0000071C348FEF725FBC34800F017FC4FF4FF
:102000000071BF48FEF71BFB10BD2DE9F0410646ED
:102010000C4615461F46BD48B0F800046FF30E008D
:10202000BA49A1F800043246B9A1B64800F069FBEC
:102030001CB915B90120BDE8F0814FF47A7107FB96
:1020400001F000F0F3FB0020B049B1F80014C1F337
:102050000E01AE4A50541146AFA000F0ABFFB4B130
:10206000ADB12146A94800F031FC08B1012000E0E3
:10207000002040B92946A54800F028FC08B10120FD
:1020800000E0002008B10120D5E70020D3E744B1EB
:1020900021469E4800F01AFC08B10120CBE7002041
:1020A000C9E72946994800F011FC08B10120C2E7B0
:1020B0000020C0E710B500244FF400719048FEF7EF
:1020C000BEFA964800F0B2FB0CE04FF4FA7300221F
:1020D00093A194A0FFF799FF00B110BDFFF786FF11
:1020E000601CC4B20A2CF0DB00BFF6E710B5044652
:1020F00024B1012C0AD0022C18D10FE040F6C413F1
:1021000089A287A18BA0FFF780FF10BD40F6C41302
:1021100085A283A18AA0FFF778FFF6E740F6C413F3
:1021200081A27FA189A0FFF770FFEEE70020ECE716
:1021300030B59FB004460D462B46224686A101A825
:1021400000F048FF41F28833002275A101A8FFF793
:102150005CFF1FB030BD70B5A0B004460D461646FA
:102160002B46224681A102A8009600F033FF4FF4CF
:102170007A7300226AA102A8FFF747FF20B070BD62
:1021800010B586B004460CB1012000E000200246E4
:102190007CA101A800F01EFF4FF4FA73002260A199
:1021A00001A8FFF732FF06B010BDF0B5B9B0064682
:1021B0000F4614461D46642120A800F07CFB16B192
:1021C000012E10D107E03B4672A273A120A8009413
:1021D00000F000FF08E03B4673A26FA120A8009426
:1021E00000F0F8FE00E000BF00BF052D06DA20ABCE
:1021F0002A466EA102A800F0EDFE04E020AA70A11C
:1022000002A800F0E7FE4FF47A6371A244A102A88D
:10221000FFF7FBFE39B0F0BD70B5BCB004460D460B
:102220001646FCB12B4601226DA11EA800F0D2FE7D
:10223000324670A1684600F0CDFE4FF4FA730022DA
:1022400037A11EA8FFF7E1FE50B14FF4FA73002248
:1022500033A16846FFF7D9FE10B101203CB070BD34
:102260000020FBE72B4600225DA11EA800F0B2FE75
:102270004FF4FA7300222AA11EA8FFF7C6FEEDE76D
:1022800010B54FF4FA73002225A15EA0FFF7BDFE42
:10229000A0B160A11D4800F019FB08B1022010BDDB
:1022A0005FA11A4800F012FB08B10320F7E75FA115
:1022B000164800F00BFB08B10420F0E70020EEE721
:1022C00010B500244FF4FA73002215A14DA0FFF7BA
:1022D0009CFE002812D058A10C4800F0F7FA10B16B
:1022E00044F0010401E024F0010457A1074800F084
:1022F000EDFA10B144F00204B0E0ADE0CCE0000033
:10230000000C01400048004020A1070038040020D4
:1023100025730D0A000000002573000040420F00E5
:102320004F4B0000415400006E6F206368616E6780
:102330006500000041542B43574D4F44453D31004B
:1023400041542B43574D4F44453D320041542B439C
:10235000574D4F44453D330041542B43574A41505C
:102360003D222573222C22257322000041542B4349
:10237000575341503D222573222C222573222C31A4
:102380002C25640041542B4349504D55583D25643C
:102390000000000054435000222573222C22257394
:1023A000222C2573000000005544500041542B435B
:1023B000495053544152543D25642C25730000006C
:1023C00041542B43495053544152543D257300000E
:1023D000414C5245415920434F4E4E454354000015
:1023E00041542B4349505345525645523D25642C88
:1023F0002573000041542B43495053544F3D2573DE
:102400000000000041542B4349505354415455534C
:10241000000000005354415455533A320D0A000055
:102420005354415455533A330D0A00005354415408
:1024300055533A340D0A00002B434950535441542C
:1024400055533A302C0000002B434950535441540B
:1024500055533A312C00000024F0020464A168486E
:1024600000F034FA10B144F0040401E024F0040454
:1024700064A1634800F02AFA10B144F0080401E0B6
:1024800024F0080463A15E4800F020FA10B144F083
:10249000100401E024F01004204610BD2DE9F041A5
:1024A00005460F464FF4FA730022AFF28C115DA07F
:1024B000FFF7ABFD5EA1524800F008FA06460EB1E8
:1024C000B61D02E00020BDE8F081002409E0305D87
:1024D0002855285D222802D10020285503E0601CE1
:1024E000C4B2BC42F3DB00BF0120ECE710B54FF4EF
:1024F000FA730022AFF2D8114FA0FFF786FD08B99A
:10250000002010BD4FF4FA734FA2AFF2EC114FA0B0
:10251000FFF77BFDF5E710B54F4800F087F94FA1B5
:102520004F4800F0EEF84F4800F080F910BD2DE95B
:10253000F04186B007460C4615461E464FF000088F
:1025400047B12246AFF23021454800F0DAF84FF0AB
:1025500001081CE0052E06DAAB1C324642A101A898
:1025600000F038FD04E0AA1C44A101A800F032FDEF
:102570004FF47A73002245A101A8FFF746FD4FF4FE
:102580007A73002242A12046FFF73FFD8046404675
:1025900006B0BDE8F08170B5044600251848B0F8D3
:1025A00000046FF30E001649A1F800040846B0F8C5
:1025B000000420F40040A1F8000400BF1048B0F867
:1025C0000004C00B0028F9D000200D49B1F8001418
:1025D000C1F30E010A4A50540CB1154605E02EA174
:1025E000074800F073F900B1054D284670BD0000A2
:1025F0002B4349505354415455533A322C00000058
:10260000380400202B4349505354415455533A3316
:102610002C0000002B4349505354415455533A3435
:102620002C00000041542B43494653520000000047
:10263000415049502C22000041542B4349504D4FEA
:1026400044453D31000000003E00000041542B4352
:10265000495053454E44000040420F002B2B2B00A5
:102660000048004020A1070041542B4349505345E6
:102670004E443D25642C25640000000041542B434A
:10268000495053454E443D25640000003E20000063
:1026900053454E44204F4B002B495044000000004E
:1026A000F0B503460D461646002729460A2E03D0EC
:1026B000002008702846F0BD33B9302001F8010B26
:1026C000002008702846F6E7002B03DA2D2001F8D9
:1026D000010B5B4242F210720DE093FBF2F404B97D
:1026E00037B104F1300001F8010B04FB123301276C
:1026F0000A2092FBF0F2002AEFDC00200870284646
:10270000D9E70FB470B586B006460CA8019073E007
:102710000B9800785C281CD10B98401C0B9000781B
:102720006E2809D072280FD10D213046FEF736FBF6
:102730000B98401C0B900BE00A213046FEF72EFB55
:102740000B98401C0B9003E00B98401C0B9000BFB3
:102750004BE00B980078252840D10B98401C0B903B
:102760000078642818D0732833D1019810C80190DC
:102770000BE021783046FEF711FB00BF8021304688
:10278000FEF77AFB0028F9D0641C20780028F0D1ED
:102790000B98401C0B9020E0019820C801900A2261
:1027A00002A92846FFF77CFF02AC0BE021783046F7
:1027B000FEF7F4FA00BF80213046FEF75DFB0028EB
:1027C000F9D0641C20780028F0D10B98401C0B90A5
:1027D00003E00B98401C0B9000BF06E00B9810F82C
:1027E000011B0B903046FEF7D9FA00BF802130461E
:1027F000FEF742FB0028F9D00B980078002887D11B
:1028000006B070BC5DF814FB1A48006840F0807098
:10281000184908600020184948600846006840F0E0
:1028200001000860704714484068704731B50023C4
:1028300012480068124DB0FBF5F0009D00FB05F456
:1028400000BFFFF7F0FF024611E0FFF7ECFF014683
:1028500091420CD0914202D9881A034403E0C2F19C
:10286000FF30084403440A46A34200D300E0ECE7EB
:1028700000BF38BDFCED00E0001000E000000020CB
:1028800040420F0040EA01039B0703D009E008C95A
:10289000121F08C0042AFAD203E011F8013B00F825
:1028A000013B521EF9D27047D2B201E000F8012B71
:1028B000491EFBD270470022F6E710B513460A46C0
:1028C00004461946FFF7F0FF204610BD30B5054617
:1028D0002A460B4612F8010B13F8014B08B1A0422F
:1028E000F8D01CB1002802D06D1CF1E7284630BD9D
:1028F000421C10F8011B0029FBD1801A704710B54B
:10290000002200E0521C835C8C5CA34201D1002BAE
:10291000F8D1D8B2E1B2401A10BD00000FB400B532
:102920008DB010A909900B9000914FF0FF300A90E4
:1029300000200C9005480690054807906A4609A8B3
:102940000F9900F047F90DB05DF814FBF12B00086A
:102950000F2C00082DE9FF5F1D464FF0FF3BD5E926
:10296000014691465F464FF00008A9697F1C019817
:102970008847296A824688470028F6D1BAF1FF3F86
:102980000CD024F4C064002E19DD600614D5BAF111
:102990002B0F09D0BAF12D0F0ED103E0584604B029
:1029A000BDE8F09F44F48064A9697F1C01988847C2
:1029B000761E8246002E02DDBAF1300F03D0B9F147
:1029C000000F26D032E0A969761E44F400747F1C03
:1029D000019888478246002E05DDBAF1780F06D0AF
:1029E000BAF1580F03D0B9F1000F10D01EE0B9F1C1
:1029F000000F02D0B9F1100F18D1A969761E24F486
:102A000000747F1C019888478246102002E008204D
:102A100000E00A20814609E008FB0908A969761E42
:102A200044F400747F1C019888478246002E05DD1F
:102A30004946504600F0BAF80028EDDAE9690198F5
:102A40008847A00502D46FF00100A8E7E00725D170
:102A5000600613D5600502D5C8F1000000E04046CD
:102A600029680A1D2A600968220501D5087015E049
:102A7000220701D5088011E008600FE02868011DD9
:102A800029600068210502D580F8008006E0210752
:102A900002D5A0F8008001E0C0F8008038467EE74B
:102AA0002DE9FF5FD2E901A74FF00008916999462F
:102AB0001446DDF838B0464601988847054659EA7D
:102AC0000B0005D009E0A169761C019888470546EE
:102AD000216A284688470028F5D1681C03D05FEAA0
:102AE000CA7005D015E04FF0FF3004B0BDE8F09F8C
:102AF0002068011D2160D0F800800AE05FEACA70FA
:102B000001D108F8015BA169761C7F1E01988847F6
:102B10000546002F1ADD681C18D0B9F1000F0DD042
:102B2000E81705EBD060421120F01F0059F8221081
:102B30002A1A012090400142E0D107E0BBF1000FCA
:102B4000DCD1216A284688470028D7D0E16901985E
:102B50008847BBF1000F07D1002E05DD5FEACA7080
:102B600002D1002188F80010A068B84203DDBBF153
:102B7000000F03D017B16FF00100B6E73046B4E79D
:102B800030B50B46014600202022012409E021FA3D
:102B900002F59D4205D303FA02F5491B04FA02F53A
:102BA0002844151EA2F10102F1DC30BD3A2800D202
:102BB000303820F02002412A01D3A2F137008842A8
:102BC00001D34FF0FF307047026811441378016061
:102BD00018467047D16004495161044911620021CF
:102BE0001161114600F03CB8C92B0008552C0008B3
:102BF000426842B1016811F8013B23B1521EC0E99D
:102C00000012184670470121C160881E7047426853
:102C10005AB1C368016843B983688B4205D0491E25
:102C2000521CC0E90012002070474FF0FF3070477F
:102C3000064C074D06E0E06840F0010394E8070009
:102C400098471034AC42F6D3FDF776FAF834000812
:102C500018350008C0B24FF4F05100F097B90000E9
:102C60002DE9F34F8BB04FF0000801F10C000C463A
:102C70004FF0010B46460DF1080A019062690121EF
:102C800001989047051E2DD0252D2CD0216A88470C
:102C9000C0B16269012101989047216A88470028E4
:102CA000F7D1411E62690198904700E0761CA16946
:102CB0000B988847216A88470028F7D1E1690B986B
:102CC0008847DBE7A1690B9888470746A84201D1EE
:102CD000761CD3E7E1690B9888477F1C02D1B8F1D5
:102CE000000F6FD046E1002762693D4639460198E2
:102CF00090472A2804D16269012101989047012553
:102D0000DFF884926269012101989047A0F13001B7
:102D10000A290AD24F45E5DC07EB870100EB4107A2
:102D2000303FDFD445F01005ECE7E90601D46FF041
:102D300000476C280AD04C2814D0682815D06A287F
:102D40000DD074281CD07A281AD01DE062690121A8
:102D5000019890476C2802D045F0040514E045F036
:102D600002050DE045F020050AE0626901210198A5
:102D70009047682802D045F0080505E045F4006555
:102D80006269012101989047C4E9015765283DD047
:102D900019DC58287AD00CDC452837D004DC2528EB
:102DA00026D0412831D131E046282FD047282CD1D8
:102DB0002CE05B2877D0612828D063287CD0642859
:102DC00023D15AE0D0E06F2848D008DC66281DD017
:102DD00067281BD0692821D06E2816D127E07028DB
:102DE00045D0732868D0752847D078280DD14DE09C
:102DF000A1690B988847054625283FF469AFE1692A
:102E00000B9888476D1C3FF46AAFB3E023466A46CF
:102E10006FF001000B99AFF300809EE045F0400099
:102E20006060A80723464FF0000236D43EE0E80772
:102E30007FF447AF2068011D21600068290501D596
:102E400006701BE7290701D5068017E7A90703D5F8
:102E5000F117C0E9006111E706600FE745F0400097
:102E60006060A80723464FF0080216D41EE040F623
:102E70000E0125EA0100606016E045F04000606048
:102E8000A80723464FF00A0207D40FE045F04000A0
:102E90006060A80708D5234610226FF001000B9947
:102EA000AFF3008059E007E0234610226FF00100E5
:102EB0000B99FFF74FFD50E04FF000094F464B468E
:102EC000632802D05B2806D040E0E80601D4012048
:102ED000A06001273AE062690121019890475E28CD
:102EE00005D14FF00109626949460198904721696F
:102EF00039B900210A46534643F82120491C0829C4
:102F0000FADBB0B3216969B9C11700EBD162531183
:102F10000AEB830122F01F02821A01200B68904005
:102F200003430B6062690121019890475D28E8D155
:102F3000B9F1000F09D00020514651F82020D243AA
:102F400041F82020401C0828F7DB02AB22460097FE
:102F50006FF001000B99FFF7A3FD00280CDA401C6D
:102F600008D1BBF1000F05D04FF0FF300DB0BDE828
:102F7000F08FFFE74046F9E7E90701D108F10108C2
:102F800006444FF0000B79E6CCCCCC0C7F2801D95D
:102F9000002208E0064A02EB5002C007127800D176
:102FA000120902F00F020120904008407047000013
:102FB000103400080FB4054B10B503A9044A029859
:102FC00000F02CF810BC5DF814FB00008F1E000808
:102FD000340000200FB4084B10B504A902AA0398CE
:102FE00000F01CF8044602A9002000F0B8F92046C1
:102FF00010BC5DF814FB00005F33000802E008C855
:10300000121F08C1002AFAD170477047002001E062
:1030100001C1121F002AFBD1704700002DE9FF4FAC
:103020008BB088460546002606E025280BD0DDE952
:103030000D1290476D1C761C28780028F5D10FB032
:103040003046BDE8F08F0024A146A2460122AE49D9
:1030500000E0044315F8013F203B02FA03F0084268
:10306000F7D128782A2810D06FF02F022878A0F105
:103070003001092915D809EB890102EB410144F01F
:10308000020400EB01096D1CF0E758F8041B5FEA2D
:10309000010903D544F40054C9F1000944F00204C5
:1030A0006D1C28782E2817D115F8010F44F0040460
:1030B0002A280ED06FF02F022878A0F130010929BC
:1030C0000AD80AEB8A0102EB410100EB010A6D1CF0
:1030D000F2E758F804AB6D1C28786C280FD006DC9A
:1030E0004C2817D068280DD06A2814D104E0742821
:1030F00010D07A280FD10DE044F400140AE044F413
:10310000801401E044F440146978814202D104F54E
:1031100080146D1C6D1C2878692865D006DC002899
:103120008DD0632827D0642806D15DE06E2808D0B2
:1031300073282AD0752877D0DDE90D129047761CC8
:10314000E0E0C4F30250022809D003280DD0D8F8DB
:10315000001004280DD00E6008F10408D2E0D8F861
:103160000010F217C1E90062F6E7D8F800100E80EF
:10317000F2E70E70F0E718F8041B8DF8001000203D
:103180008DF80100EB46012003E058F804BB4FF036
:10319000FF3061074FF0000701D40AE07F1C57455C
:1031A0000DDA8742FADB1BF807100029F6D106E09A
:1031B0007F1C8742FCDB1BF807100029F8D1DDE9F2
:1031C0000D23A9EB07008146214600F0B1F83044F9
:1031D000C61904E0DDE90D121BF8010B90477F1EB4
:1031E000F8D22146484688E058F8040BC4F302514F
:1031F0004FF00A0B032900D100B2042900D140B2DC
:10320000002802DA40422D2102E0210505D52B21BC
:103210008DF82410012104E006E0E10710D0202100
:10322000F6E708AF089113E058F8040BC4F3025115
:103230004FF00A0B032900D180B2042900D1C0B29B
:103240000021EEE75946FFF79BFC303107F8011DDE
:103250000028F7D1ADEB070000F1200B600702D585
:1032600024F4803401E04FF0010ADA4502DDAAEBD4
:103270000B0000E00020824600EB0B01089801449F
:10328000A9EB01000A90E00306D4DDE90D232146F5
:103290000A9800F04DF806444FF0000908E009A92B
:1032A00011F80900DDE90D12904709F10109761CBA
:1032B00008998945F3DBE0030CD5DDE90D232146B0
:1032C0000A9800F035F8064404E0DDE90D123020DC
:1032D0009047761CBAF10001AAF1010AF5DC05E07D
:1032E000DDE90D1217F8010B9047761CBBF10001C8
:1032F000ABF1010BF4DC0A982146DDE90D2300F067
:1033000005F806446D1C97E6092801002DE9F041F7
:10331000044600251E461746880404D405E03946B5
:103320002020B0476D1C641EF9D52846BDE8F08109
:103330002DE9F041044600251E469046C80301D5FC
:10334000302700E02027880404D505E041463846B0
:10335000B0476D1C641EF9D52846BDE8F0810A68A7
:10336000531C0B6010707047E434000850000000DC
:1033700050340008F0340008500000008C3400087D
:103380004E2F41000000000000000000000000007F
:103390004E2F41000000000000000000000000006F
:1033A000000000000000000000000000000000001D
:1033B000000000000000000000000000000000000D
:1033C00000000000000000000000000000000000FD
:1033D0004E2F41000000000000000000000000002F
:1033E0004E2F41000000000000000000000000001F
:1033F0004E2F41000000000000000000000000000F
:1034000000000000000000000000000000000000BC
:10341000DDDDDDDDDCBBBBDDDDDDDDDDDDDDDDDD21
:103420009888888888888888777777777788888861
:1034300085555556666666666666666666688888F9
:103440008333333222222222222222222228888DF2
:10345000474554202F67657420485454502F312E0F
:10346000310D0A486F73743A206874747062696E23
:103470002E6F72670D0A436F6E6E656374696F6EAF
:103480003A20636C6F73650D0A0D0A00474554209E
:103490002F586927616E3F666F726D61743D6A31A6
:1034A00020485454502F312E310D0A486F73743A0E
:1034B00020777474722E696E0D0A557365722D41F2
:1034C00067656E743A206375726C0D0A436F6E6E99
:1034D000656374696F6E3A20636C6F73650D0A0DD6
:1034E0000A0000006874747062696E2E6F72670063
:1034F000777474722E696E00183500080000002081
:1035000038000000FC2F000850350008380000206B
:10351000081000000C30000800A24A04000000005F
:103520000000000001020304060708090000000073
:103530000102030401020304060708090204060845
:10354000000000000000000000000000000000007B
:0400000508000131BD
:00000001FF
