:020000040800F2
:1000000008E40020DD0100081B2B0008091D000882
:100010001D2A000889110008F53B000800000000B7
:100020000000000000000000000000004501000882
:10003000111200080000000089010008D1360008F4
:10004000F7010008F7010008F7010008F7010008B0
:10005000F7010008F7010008F7010008F7010008A0
:10006000F7010008F7010008F7010008F701000890
:10007000F7010008F7010008F7010008F701000880
:10008000F7010008F7010008F7010008F701000870
:10009000F7010008F7010008F7010008F701000860
:1000A000F7010008F7010008F7010008F701000850
:1000B000F7010008F7010008F7010008F701000840
:1000C000F7010008F7010008F7010008F701000830
:1000D000F701000885370008F7010008013800081B
:1000E000F7010008F7010008F7010008F701000810
:1000F000F7010008F7010008F7010008F701000800
:10010000F7010008F7010008F7010008F7010008EF
:10011000F7010008F7010008F7010008F7010008DF
:10012000F7010008F7010008F7010008F7010008CF
:10013000DFF80CD000F01CFC0048004761CB02083F
:1001400008E40020224B19680868B0E8F00F80F33B
:100150000988BFF36F8F4FF0000080F311884EF0D5
:100160000D0E70470000000006480068006880F32C
:10017000088862B661B6BFF34F8FBFF36F8F00DFA1
:1001800000BF00BF08ED00E0EFF30980BFF36F8F01
:100190000F4B1A6820E9F00F106008B54FF05000BF
:1001A00080F31188BFF34F8FBFF36F8F32F0BCFF26
:1001B0004FF0000080F31188BDE808401968086816
:1001C000B0E8F00F80F30988BFF36F8F704700BF6E
:1001D00028000020EFF305807047000006488047A4
:1001E00006480047FEE7FEE7FEE7FEE7FEE7FEE71C
:1001F000FEE7FEE7FEE7FEE72537000831010008CD
:100200002DE9F05F0546002092469B46884606464B
:10021000814640241BE0284641464746224600F0DE
:10022000D0FA53465A46C01A914110D31146184687
:10023000224600F0B7FA2D1A67EB01084F46224616
:100240000120002100F0AEFA17EB00094E41201EFC
:10025000A4F10104DFDC484631462A464346BDE8A6
:10026000F09F000038B5D0E90221491E01EB4101A1
:1002700002EBC1014268C1EB011102EB810102688E
:10028000C1EB011102EB8102D0E9043101EB410124
:1002900003EB81013023A1F5527191FBF3F4174D6B
:1002A0006C4302EBC41291FBF3F403FB14110092B4
:1002B0001A2902DB124B1A4400920C2291FBF2F332
:1002C000104C6343009C04EBC313009391FBF2F3C7
:1002D00002FB13110C4A08E0491E40F2A324535CB0
:1002E0006343009C04EBC31300930029F4DC014634
:1002F000684600F07DFA009838BD00003F0C0F0002
:100300008051010067C203007829050840EA010313
:100310009B0703D009E008C9121F08C0042AFAD2BB
:1003200003E011F8013B00F8013B521EF9D270477F
:10033000D2B201E000F8012B491EFBD27047002227
:10034000F6E710B513460A4604461946FFF7F0FFD4
:10035000204610BD421E12F8013F002BFBD111F8C0
:10036000013B02F8013B002BF9D1704730B505463F
:100370002A460B4612F8010B13F8014B08B1A042B4
:10038000F8D01CB1002802D06D1CF1E7284630BD22
:10039000421C10F8011B0029FBD1801A704710B5D0
:1003A000002200E0521C835C8C5CA34201D1002B34
:1003B000F8D1D8B2E1B2401A10BD30B504460020E1
:1003C000034600E05B1C934203D2E05CCD5C401B23
:1003D000F8D030BD034611F8012B00F8012B002A9C
:1003E000F9D11846704700000FB400B58DB010A9C0
:1003F00009900B9000914FF0FF300A9000200C9074
:1004000005480690054807906A4609A80F9900F02C
:1004100049FA0DB05DF814FBC1080008DF080008B8
:100420002DE9FF5F1D464FF0FF3BD5E901469146A0
:100430005F464FF00008A9697F1C01988847296A28
:10044000824688470028F6D1BAF1FF3F0CD024F449
:10045000C064002E19DD600614D5BAF12B0F09D047
:10046000BAF12D0F0ED103E0584604B0BDE8F09F5D
:1004700044F48064A9697F1C01988847761E8246EF
:10048000002E02DDBAF1300F03D0B9F1000F26D0F3
:1004900032E0A969761E44F400747F1C01988847F5
:1004A0008246002E05DDBAF1780F06D0BAF1580F5A
:1004B00003D0B9F1000F10D01EE0B9F1000F02D047
:1004C000B9F1100F18D1A969761E24F400747F1CAD
:1004D000019888478246102002E0082000E00A20A8
:1004E000814609E008FB0908A969761E44F40074F6
:1004F0007F1C019888478246002E05DD49465046FC
:1005000000F0BCF90028EDDAE96901988847A005F8
:1005100002D46FF00100A8E7E00725D1600613D5EB
:10052000600502D5C8F1000000E0404629680A1DB8
:100530002A600968220501D5087015E0220701D557
:10054000088011E008600FE02868011D296000683C
:10055000210502D580F8008006E0210702D5A0F829
:10056000008001E0C0F8008038467EE72DE9FF5F9B
:10057000D2E901A74FF00008916999461446DDF8C9
:1005800038B0464601988847054659EA0B0005D021
:1005900009E0A169761C019888470546216A28462A
:1005A00088470028F5D1681C03D05FEACA7005D0DF
:1005B00015E04FF0FF3004B0BDE8F09F2068011D4A
:1005C0002160D0F800800AE05FEACA7001D108F823
:1005D000015BA169761C7F1E019888470546002FA4
:1005E0001ADD681C18D0B9F1000F0DD0E81705EB23
:1005F000D060421120F01F0059F822102A1A012061
:1006000090400142E0D107E0BBF1000FDCD1216A4C
:10061000284688470028D7D0E16901988847BBF170
:10062000000F07D1002E05DD5FEACA7002D100215C
:1006300088F80010A068B84203DDBBF1000F03D0BA
:1006400017B16FF00100B6E73046B4E7F0B480EAC6
:100650000102D40F4200B2EB410F02D2024608461B
:1006600011464A0042D0C30DDDB2C1F3C752AD1AE4
:10067000202D35DAC1F3160141F4000204B15242D3
:10068000C5F1200602FA06F12A411044B3EBD05F0F
:1006900023D0C4B1012DA0EBC35009DCF0BC4FF056
:1006A000004202EAC352DBB200F5000000F031B9AB
:1006B000400000F1807000EBC350A0F1807040EA70
:1006C000D170490009E0490841EAC071A0EBC3506C
:1006D00000F50000400800EBC350F0BC00F010B97A
:1006E0006142012202EB4101001BF6E7F0BC7047BA
:1006F00081F00041AAE780F00040A7E780EA01020C
:1007000010B502F00043400022D04A001FD0010E75
:1007100001EB1261C0F35600C2F3560240F4000030
:1007200042F40002A0FB022000047F39140400D030
:10073000401C50EA124001D44000491EC2B20C06CF
:1007400004EBD010401C4008802A02D003E00020B7
:1007500010BD20F00100002900DA0020184310BD70
:10076000C10F80EAE0700844CA079623002100F018
:10077000D0B800F0004220F00040C10DC0F31600D8
:1007800040F400007F2901DA00207047962903DC3D
:10079000C1F19601C84001E096398840002AF4D0A2
:1007A00040427047202A04DB203A00FA02F1002080
:1007B00070479140C2F1200320FA03F3194390409F
:1007C0007047202A04DB203A21FA02F0002170470A
:1007D00021FA02F3D040C2F12002914008431946A9
:1007E00070470000014900F003B80000D8DF002086
:1007F00010B500683C22B0FBF2F302FB1303B0FB20
:10080000F2F00B60B0FBF2F302FB1303B0FBF2F06B
:1008100018224B60B0FBF2F302FB1303B0FBF2F0C3
:10082000021D8B600723B2FBF3F403FB142280004C
:1008300040F2B55300F66C308A61B0FBF3F2B0FBC6
:10084000F3F403FB1400443280084A61C8613B287A
:1008500002D3920700D0401C0022074C13460A61C5
:10086000E25C824203D8801A5B1C0B61F8E7401CF3
:10087000C860084610BD0000842905083A2800D247
:10088000303820F02002412A01D3A2F137008842FB
:1008900001D34FF0FF3070470268114413780160B4
:1008A00018467047D1600449516104491162002122
:1008B0001161114600F074B8990800089509000804
:1008C000426842B1016811F8013B23B1521EC0E9F0
:1008D0000012184670470121C160881E70474268A7
:1008E0005AB1C368016843B983688B4205D0491E79
:1008F000521CC0E90012002070474FF0FF307047D3
:100900000029A8BF7047401C490008BF20F0010023
:10091000704710B4B0FA80FC00FA0CF050EA010401
:1009200004BF10BC704749B1CCF1200421FA04F493
:1009300011FA0CF118BF012121430843A3EB0C016C
:10094000CB1D4FEA00614FEA102042BF002010BCCF
:10095000704700EBC35010440029A4BF10BC70477F
:10096000401C490008BF20F0010010BC7047000087
:10097000064C074D06E0E06840F0010394E80700EC
:1009800098471034AC42F6D3FFF7D6FBCC2F0508BE
:10099000EC2F0508C0B24FF4F05100F097B90000F9
:1009A0002DE9F34F8BB04FF0000801F10C000C461D
:1009B0004FF0010B46460DF1080A019062690121D2
:1009C00001989047051E2DD0252D2CD0216A8847EF
:1009D000C0B16269012101989047216A88470028C7
:1009E000F7D1411E62690198904700E0761CA16929
:1009F0000B988847216A88470028F7D1E1690B984E
:100A00008847DBE7A1690B9888470746A84201D1D0
:100A1000761CD3E7E1690B9888477F1C02D1B8F1B7
:100A2000000F6FD046E1002762693D4639460198C4
:100A300090472A2804D16269012101989047012535
:100A4000DFF884926269012101989047A0F130019A
:100A50000A290AD24F45E5DC07EB870100EB410785
:100A6000303FDFD445F01005ECE7E90601D46FF024
:100A700000476C280AD04C2814D0682815D06A2862
:100A80000DD074281CD07A281AD01DE0626901218B
:100A9000019890476C2802D045F0040514E045F019
:100AA00002050DE045F020050AE062690121019888
:100AB0009047682802D045F0080505E045F4006538
:100AC0006269012101989047C4E9015765283DD02A
:100AD00019DC58287AD00CDC452837D004DC2528CE
:100AE00026D0412831D131E046282FD047282CD1BB
:100AF0002CE05B2877D0612828D063287CD064283C
:100B000023D15AE0D0E06F2848D008DC66281DD0F9
:100B100067281BD0692821D06E2816D127E07028BD
:100B200045D0732868D0752847D078280DD14DE07E
:100B3000A1690B988847054625283FF469AFE1690C
:100B40000B9888476D1C3FF46AAFB3E023466A46B2
:100B50006FF001000B99AFF300809EE045F040007C
:100B60006060A80723464FF0000236D43EE0E80755
:100B70007FF447AF2068011D21600068290501D579
:100B800006701BE7290701D5068017E7A90703D5DB
:100B9000F117C0E9006111E706600FE745F040007A
:100BA0006060A80723464FF0080216D41EE040F606
:100BB0000E0125EA0100606016E045F0400060602B
:100BC000A80723464FF00A0207D40FE045F0400083
:100BD0006060A80708D5234610226FF001000B992A
:100BE000AFF3008059E007E0234610226FF00100C8
:100BF0000B99FFF715FC50E04FF000094F464B46AC
:100C0000632802D05B2806D040E0E80601D401202A
:100C1000A06001273AE062690121019890475E28AF
:100C200005D14FF001096269494601989047216951
:100C300039B900210A46534643F82120491C0829A6
:100C4000FADBB0B3216969B9C11700EBD162531166
:100C50000AEB830122F01F02821A01200B689040E8
:100C600003430B6062690121019890475D28E8D138
:100C7000B9F1000F09D00020514651F82020D2438D
:100C800041F82020401C0828F7DB02AB22460097E1
:100C90006FF001000B99FFF769FC00280CDA401C8B
:100CA00008D1BBF1000F05D04FF0FF300DB0BDE80B
:100CB000F08FFFE74046F9E7E90701D108F10108A5
:100CC00006444FF0000B79E6CCCCCC0C7F2801D940
:100CD000002208E0064A02EB5002C007127800D159
:100CE000120902F00F0201209040084070470000F6
:100CF0009029050870B58C1810F8015B15F00703F2
:100D000001D110F8013B2A1106D110F8012B03E0A4
:100D100010F8016B01F8016B5B1EF9D12B0705D4AC
:100D20000023521E0DD401F8013BFAE710F8013BF5
:100D3000CB1A921C03E013F8015B01F8015B521E11
:100D4000F9D5A142D8D3002070BD000008B50146F6
:100D500000200090034800900098084400900098FC
:100D6000008808BD006C004008B500220092044ACB
:100D70000092009A02440092009A116008BD00009F
:100D8000006C004010B5044621460648FFF7E2FA21
:100D900005A10448FFF7DEFA02490448006820F084
:100DA00055FE10BDD8D700200A000000880300209F
:100DB00010B50446012221460548006816F0D7FF09
:100DC000224604A10548006820F098FE10BD0000EE
:100DD0008C030020256425250000000090030020DE
:100DE00038B505460C46204601F03EFC002003467F
:100DF0004FF4FA7209210090204628F023F9284682
:100E000022F00AFE01A003F033FC38BD55493A2018
:100E1000E887AAE6A380E5AE8CE688902C20E588DA
:100E200087E68DA2E588B0E4B8BBE7958CE99DA282
:100E30000A00000010B504460023032201213948AE
:100E4000006832F039FB0023032202213548006894
:100E500032F032FB2CF07EFB50B933A003F008FCDB
:100E60002CF0C8FB2CF018FC38A003F001FC02E0C9
:100E70003CA003F0FDFB0023032211462948006833
:100E800032F01AFB322032F02FF800230322042123
:100E90002448006832F010FB39A003F0E9FB4FF45E
:100EA000FA7032F021F800F0B5F93CA003F0E0FB55
:100EB0000023032205211B48006832F0FDFA32208E
:100EC00032F012F83BA003F0D3FB01F0FAFD4FF42F
:100ED000FA7032F009F80023032206211148006855
:100EE00032F0EAFA4FF4FA7031F0FEFF00230322E9
:100EF00007210C48006832F0DFFA34A003F0B8FB99
:100F000038A003F0B5FB00230322FF210548006849
:100F100032F0D2FA4FF4FA7031F0E6FF002032F0EE
:100F20001FF810BD7C030020426F6F743A20466F9B
:100F30006E74206E6F7420666F756E642C206275FF
:100F4000726E696E672E2E2E0A000000426F6F745B
:100F50003A20466F6E74206275726E20646F6E6503
:100F60002E0A0000426F6F743A20466F6E7420653F
:100F700078697374732C20736B69702E0A000000FB
:100F8000426F6F743A2054657374696E67204553DD
:100F900050383236362E2E2E0A000000426F6F7403
:100FA0003A2045535038323636204154204F4B2E8C
:100FB0000A000000426F6F743A2054657374696EC2
:100FC00067205254432E2E2E0A000000426F6F7489
:100FD0003A2054657374696E6720574946492E2E2E
:100FE0002E0A0000426F6F743A20E887AAE6A380B9
:100FF000E7BB93E69D9F0A007CB5002022F0FCFC35
:10100000044600BFFF221146104618F0B0FD0090C4
:10101000BDF800100846002201460190204626F047
:1010200093FF20461FF00AFD054649A1284620F0FF
:101030000DFD00224949284627F086F81E2232215C
:10104000284626F0FAFD20461FF0F8FC064644A18B
:10105000304620F0FBFC00224449304627F074F86B
:1010600061221B21304626F0E8FD204616F03AFDAD
:101070003F4908600F22C8213D48006826F02FFE36
:1010800075221B213A48006826F0D7FD00BF0022D8
:101090001146104618F06BFD0090BDF80010084690
:1010A0000022014601903248006826F04DFF0520DD
:1010B00027F04EF90022014601902D48006826F0E5
:1010C00043FF00212A48006816F0D8FD6422002161
:1010D0002748006816F0E6FD00224FF4FA71244814
:1010E000006826F018FF002211462148006816F01B
:1010F0003EFE20461FF0A2FC1E4908601EA11D48AE
:10110000006820F0A3FC002218491A48006827F064
:101110001BF87522E6211748006826F08EFD204650
:101120001FF08CFC1549086000221549134800681F
:1011300027F00AF896221B211048006826F07DFD52
:101140004FF400710F48FFF7FAF820467CBD00000D
:101150005A656E53746F6E657300000088F0040862
:10116000424F4F54696E67202E2E2E00282105080D
:101170008C0300209003002030250000880300200D
:10118000BC760308D8D7002000BFFEE707480068F8
:1011900040F0807005490860002005494860084615
:1011A000006840F00100086070470000FCED00E0BE
:1011B000001000E00148406870470000001000E0A7
:1011C00031B5002310480068104DB0FBF5F0009DCC
:1011D00000FB05F400BFFFF7EDFF024611E0FFF74B
:1011E000E9FF014691420CD0914202D9881A03448A
:1011F00003E0C2F1FF30084403440A46A34200D38F
:1012000000E0ECE700BF38BD1400002040420F00B2
:101210007047000010B500244FF400710B4800F037
:1012200048FA0B48FFF7CCFF0CE04FF4FA730022AA
:1012300008A109A000F012F800B110BD00F0A2F85A
:10124000601CC4B20A2CF0DB00BFF6E7000C0140C2
:1012500040420F004F4B0000415400002DE9F04187
:1012600006460C4615461F462748B0F800046FF3A3
:101270000E002549A1F80004324624A1254802F0B9
:1012800036FC1CB915B90120BDE8F0814FF47A7124
:1012900007FB01F0FFF794FF00201B49B1F8001491
:1012A000C1F30E01184A505411461BA003F0E0F997
:1012B000B4B1ADB121461448FFF758F808B1012088
:1012C00000E0002040B929460F48FFF74FF808B169
:1012D000012000E0002008B10120D5E70020D3E77D
:1012E00044B121460848FFF741F808B10120CBE797
:1012F0000020C9E729460448FFF738F808B1012063
:10130000C2E70020C0E70000D4CF002025730D0AFB
:1013100000000000004800402573000008B50121CE
:10132000082001F0D7FE4FF48070ADF800001020C7
:101330008DF8030003208DF802006946074800F08D
:1013400022F90121082001F0C5FE4FF40070ADF82C
:1013500000006946014800F016F908BD000C014084
:1013600010B5FFF7DBFF00F021F84FF400710448DF
:1013700000F09FF94FF48071014800F09AF910BD18
:10138000000C014010B54FF40071064800F08FF9D1
:101390000548FFF715FF4FF40071024800F089F986
:1013A00010BD0000000C014020A1070000B585B071
:1013B0000121880401F07EFE0121082001F08AFE4F
:1013C0004FF48060ADF8100018208DF81300032052
:1013D0008DF8120004A91A4800F0D5F84FF4006007
:1013E000ADF8100004208DF8130004A9144800F093
:1013F000CAF84FF4E13000900020ADF80400ADF8D9
:101400000600ADF80800ADF80C000C20ADF80A009D
:1014100069460C4802F0F6FA012240F225510948CB
:1014200002F0CBFA012240F22441064802F0C5FA4C
:1014300000F00AF80121034802F020FA05B000BDCF
:10144000000C01400048004008B527208DF800003E
:1014500007208DF8010000208DF8020001208DF892
:101460000300684601F05AFB08BD000051B182003C
:10147000A2F1C042126842F001038200A2F1C04210
:10148000136009E08200A2F1C0421268034B1A40C7
:101490008300A3F1C0431A6070470000FEFF0F00F5
:1014A000D0E901121143C268114302691143426934
:1014B000114382691143C2691143026A1143426AAE
:1014C0001143826A1143C26A1143026B11430268DD
:1014D0009200A2F1C0421160816808290BD1016815
:1014E0008900A1F1C041096841F04002016889000A
:1014F000A1F1C0410A60416B0968426B526841EA40
:101500000211426B926841EA0221426B928941EAE0
:101510000241426B128A41EA0251426B127D41EA5A
:101520000261426B926911430268521C9200A2F15F
:10153000C0421160C16AB1F5804F1BD1816B09684F
:10154000826B526841EA0211826B926841EA022181
:10155000826B128A41EA0251826B127D41EA02617A
:10156000826B9269114302689200A2F1C042C2F8F4
:10157000041107E06FF0704201688900A1F1C041D9
:10158000C1F8042170472DE9F041024600250026EC
:10159000002000230024002791F803C00CF00F0561
:1015A00091F803C00CF0100CBCF1000F03D091F8BF
:1015B00002C04CEA050591F800C0BCF1000F31D023
:1015C000146800202BE04FF0010C0CFA00F3B1F886
:1015D00000C00CEA03069E4220D183004FF00F0C9E
:1015E0000CFA03F7BC4305FA03FC4CEA040491F837
:1015F00003C0BCF1280F06D14FF0010C0CFA00FC1F
:10160000C2F814C00AE091F803C0BCF1480F05D13C
:101610004FF0010C0CFA00FCC2F810C0401C082866
:10162000D1D31460B1F800C0BCF1FF0F34DD5468B1
:1016300000202EE000F1080C4FF0010808FA0CF32E
:10164000B1F800C00CEA03069E4221D183004FF09E
:101650000F0C0CFA03F7BC4305FA03FC4CEA040434
:1016600091F803C0BCF1280F05D100F1080C08FA6D
:101670000CF8C2F8148091F803C0BCF1480F07D1F0
:1016800000F1080C4FF0010808FA0CF8C2F81080BD
:10169000401C0828CED35460BDE8F08102460020EB
:1016A00093680B400BB1012000E0002070474161BE
:1016B00070470161704700000348007808B90120B5
:1016C00070470020FCE70000C403002010B504466A
:1016D0000D480470012C02D0022C0ED106E00B48FC
:1016E0000B4908600BA002F0C3FF07E0124808494D
:1016F000086012A002F0BCFF00E010BD00BF012096
:101700001749087000BFF8E7BC030020D02805087F
:10171000C00300205B485454505D203D3D3D2054A3
:10172000696D65205461736B205374617274203D40
:101730003D3D0D0A00000000DC2805085B485454BC
:10174000505D203D3D3D20576561746865722054B1
:1017500061736B205374617274203D3D3D0D0A002E
:10176000C403002010B59AB0C6480078092870D28A
:10177000DFE800F005063183A8F5F3F2F1007DE122
:10178000C148B0F800046FF30E00BF49A1F800048F
:101790000846B0F8000420F40040A1F80004BB485B
:1017A00000688388B9480068B9A1026801A802F0FE
:1017B0006FFF01A9BD4802F02EFA0220B14908705E
:1017C0000020BB490870BB4908804FF48061BA48CB
:1017D000FEF7B5FD52E1AC48B0F80004C00B00289C
:1017E00038D00020A849B1F80014C1F30E01A64A70
:1017F0005054B2A11046FEF7B9FD20B9B0A1A248DD
:10180000FEF7B4FD30B1B2A002F032FF03209D49D3
:1018100008700AE0B4A19C48FEF7A8FD28B1B4A066
:1018200002F026FF0820974908709749B7A002F0F8
:101830001FFF9548B0F800046FF30E009249A1F81D
:1018400000040846B0F8000420F40040A1F80004A9
:1018500012E012E1642031F047FB95480078401C0B
:1018600093490870084600783C2805DDA8A002F0DE
:10187000FFFE08208349087000E18348B0F80004A7
:101880006FF30E008049A1F800040846B0F8000488
:1018900020F40040A1F800047C4909688868FEF73C
:1018A00077FD04462246A2A112A802F0F1FE12A979
:1018B0007E4802F0B0F904207249087000207C498B
:1018C0000870DBE07048B0F80004C00B78B300206B
:1018D0006D49B1F80014C1F30E016B4A505498A140
:1018E0001046FEF743FD18B10520664908700AE06E
:1018F0007DA16548FEF73AFD28B192A002F0B8FE3E
:10190000082060490870604980A002F0B1FE5E487E
:10191000B0F800046FF30E005B49A1F8000408461C
:10192000B0F8000420F40040A1F8000412E0FFE742
:10193000642031F0D9FA5E480078401C5C49087098
:10194000084600781E2805DD84A002F091FE0820DC
:101950004C49087092E085E06CE010E0FFE74B48EE
:1019600000688168514802F056F906204549087020
:1019700000204F49087080A002F07AFE7EE04248C5
:10198000B0F80004C00B002841D03F48B0F8000474
:10199000C0F30E0400203C4908555CA002F068FE2C
:1019A00044480088204440F2FF31884211DA42491D
:1019B000404A1288881822463349FEF7A7FC3D4862
:1019C000008820443B49088000203B49394A12885E
:1019D00088546FA12C48FEF7C9FC28B16EA002F014
:1019E00047FE0720274908702748B0F800046FF326
:1019F0000E002549A1F800040846B0F8000420F4C0
:101A00000040A1F8000400202949087011E064207A
:101A100031F06AFA26480078401C254908700846CB
:101A20000078642805DD62A002F022FE0820154936
:101A3000087023E065A002F01BFE6B4800780128C7
:101A400002D101F0B3F805E067480078022801D11F
:101A500001F008FA0020644908700C49086009493F
:101A600008700BE061A002F003FE00205E490870E0
:101A7000064908600349087000E000BF00BF1AB0C3
:101A800010BD0000C4030020D4CF0020C0030020FC
:101A900041542B43495053544152543D22544350D6
:101AA000222C222573222C25640D0A0000480040B8
:101AB000C5030020C6030020D8DB00204F4B0000E8
:101AC000414C524541445920434F4E4E45435400EA
:101AD0005B485454505D2054435020436F6E6E65F4
:101AE0006374204F4B0D0A004552524F52000000C4
:101AF0005B485454505D2054435020436F6E6E65D4
:101B00006374204641494C0D0A0000002573000013
:101B10005B485454505D2054435020436F6E6E65B3
:101B200063742054696D656F75740D0A00000000C0
:101B300041542B43495053454E443D25640D0A0002
:101B40003E0000005B485454505D204349505345CB
:101B50004E44204572726F720D0A00005B48545467
:101B6000505D205761697420223E222054696D65C2
:101B70006F75740D0A0000005B485454505D20528C
:101B80006571756573742053656E740D0A000000ED
:101B9000434C4F53454400000D0A2D2D2D20485431
:101BA000545020446F6E65202D2D2D0D0A0000002D
:101BB0005B485454505D20526573706F6E7365209E
:101BC00054696D656F75740D0A0000005B485454CC
:101BD000505D2052657175657374205355434345BC
:101BE00053530D0A00000000BC0300205B4854540E
:101BF000505D2052657175657374204641494C45AE
:101C0000440D0A0010B5FFF7ADFD10BD67E0344884
:101C1000B0F80004C00B002838D000203049B1F8DB
:101C20000014C1F30E012E4A50542EA11046FEF7A7
:101C30009DFB18B10120FFF749FD18E02BA12848B2
:101C4000FEF794FB18B10220FFF740FD0FE029A139
:101C50002348FEF78BFB18B10120FFF737FD06E0A4
:101C6000FFF72AFD18B11E49244801F0D4FF1C4893
:101C7000B0F800046FF30E001949A1F800040846FB
:101C8000B0F8000420F40040A1F80004FFF714FDB0
:101C900010B9FFF7B7FF1FE01948B0F80004C00BF8
:101CA000D0B100201649B1F80014C1F30E01144A56
:101CB00050541146134801F0AEFF1148B0F800042B
:101CC0006FF30E000E49A1F800040846B0F80004B6
:101CD00020F40040A1F80004052031F005F996E752
:101CE000D6D3002054494D450000000057454154CB
:101CF000000000004854545000000000004800401C
:101D0000D4CF00200038014002A002F0B1FC00BF97
:101D1000FEE70000486172644661756C7400000063
:101D200010B504462CB14FF480510548FFF7BFFCB5
:101D300004E04FF480510248FFF7BBFC10BD0000E7
:101D40000014014001B502E00098401E0090009888
:101D50000028F9D108BD00B597B03C2108A8FEF7CE
:101D6000EEFA1C2101A8FEF7EAFA0121080201F0AF
:101D700091F9012001900420039080060790002033
:101D800002900490059006900890099008200A900F
:101D900010200B9000200C900E900F9010904FF49C
:101DA00080501190002012901390149001A815906B
:101DB000169008A8FFF774FB01210020FFF756FBDF
:101DC00017B000BD2DE9F84F05460E461746984658
:101DD000DDF828B0781B401C1FFA80F9A8EB06003C
:101DE000401C1FFA80FA09FB0AF0009053464A464D
:101DF0003146284600F060F92C2000F007FC002452
:101E000004E03BF8140000F005FC641C00988442D8
:101E1000F7D3BDE8F88F000008B50121602001F07C
:101E200059F903208DF8020018208DF803004FF4B3
:101E30008040ADF8000069465B48FFF7A4FB4FF413
:101E40000040ADF8000069465748FFF79CFB0120B1
:101E5000ADF8000069465448FFF795FB0220ADF845
:101E6000000069465048FFF78EFB8020ADF8000067
:101E700069464E48FFF787FB4FF48070ADF80000CD
:101E800069464A48FFF77FFB4FF40070ADF8000049
:101E900069464648FFF777FB4FF48060ADF80000D5
:101EA00069464248FFF76FFB4FF40060ADF8000051
:101EB00069463E48FFF767FB4FF48050ADF80000DD
:101EC00069463A48FFF75FFB4FF40050ADF8000059
:101ED00069463648FFF757FB4FF48040ADF80000E5
:101EE00069463248FFF74FFB4FF40040ADF8000061
:101EF00069462E48FFF747FB4FF48070ADF80000AD
:101F000069462948FFF73FFB4FF40070ADF8000029
:101F100069462548FFF737FB4FF48060ADF80000B5
:101F200069462148FFF72FFB03208DF80200182097
:101F30008DF803001020ADF8000069461A48FFF73D
:101F400022FB2020ADF8000069461748FFF71BFB75
:101F50008020ADF8000069461348FFF714FB4FF4EA
:101F60000060ADF8000069460F48FFF70CFB102039
:101F70008DF8030003208DF802000220ADF8000068
:101F800069460A48FFF7FFFA10208DF80300032086
:101F90008DF802004FF48050ADF800006946024809
:101FA000FFF7F1FA08BD00000014014000180140DD
:101FB00010B50446072C00DD10BD314804702046E2
:101FC00004EBD0714910A4EB410139B9F0202D493F
:101FD00008804FF4A0702C49088006E04FF4A070F0
:101FE00028490880F02028490880362000F00EFBA0
:101FF0002648008849F24131884205D1082141EA4A
:10200000441000F007FB0AE02048008848F25251D3
:10201000884204D1002141EA441000F0FBFA2A2052
:1020200000F0F4FA002000F0F5FA002000F0F2FAD7
:1020300014490988491EC1F3072000F0EBFA114941
:102040000978491EC8B200F0E5FA2B2000F0DEFA4C
:10205000002000F0DFFA002000F0DCFA0A490988CD
:10206000491EC1F3072000F0D5FA07490978491E37
:10207000C8B200F0CFFA2C2000F0C8FA00BF9BE7EE
:10208000A8020020A4020020A6020020AA0200202C
:1020900010B5FFF7C1FEFFF75EFE0120FFF740FE1F
:1020A00000F0A0FA00F038F802480078FFF780FF4F
:1020B00010BD0000A80200202DE9F04104460D46A5
:1020C00016461F462A2000F0A1FA201200F0A2FABC
:1020D000E0B200F09FFAA119491EC1F30F2000F0F1
:1020E00099FAA119491EC8B200F094FA2B2000F009
:1020F0008DFA281200F08EFAE8B200F08BFAE91996
:10210000491EC1F30F2000F085FAE919491EC8B233
:1021100000F080FABDE8F08110B500F025FAFE4924
:1021200008800846008849F2413188427ED1CF209C
:1021300000F06CFA002000F06DFA812000F06AFADD
:10214000302000F067FAED2000F060FA642000F023
:1021500061FA032000F05EFA122000F05BFA8120A1
:1021600000F058FAE82000F051FA852000F052FA09
:10217000102000F04FFA782000F04CFACB2000F04D
:1021800045FA392000F046FA2C2000F043FA0020EE
:1021900000F040FA342000F03DFA062000F03AFA50
:1021A000F72000F033FA202000F034FAEA2000F0A3
:1021B0002DFA002000F02EFA002000F02BFAB120BA
:1021C00000F024FA002000F025FA1B2000F022FA8B
:1021D000B62000F01BFA0A2000F01CFAA22000F042
:1021E00019FAC02000F012FA352000F013FAC120CD
:1021F00000F00CFA112000F00DFAC52000F006FAEC
:10220000452000F007FA452000F004FAC72000F04E
:10221000FDF9A22000F0FEF9F22000F0F7F900200D
:1022200000F0F8F9262000F0F1F900E096E0012036
:1022300000F0F0F9E02000F0E9F90F2000F0EAF9F1
:10224000262000F0E7F9242000F0E4F90B2000F04C
:10225000E1F90E2000F0DEF9092000F0DBF954204E
:1022600000F0D8F9A82000F0D5F9462000F0D2F906
:102270000C2000F0CFF9172000F0CCF9092000F075
:10228000C9F90F2000F0C6F9072000F0C3F90020BB
:1022900000F0C0F9E12000F0B9F9002000F0BAF92F
:1022A000192000F0B7F91B2000F0B4F9042000F069
:1022B000B1F9102000F0AEF9072000F0ABF92A20A8
:1022C00000F0A8F9472000F0A5F9392000F0A2F9A4
:1022D000032000F09FF9062000F09CF9062000F092
:1022E00099F9302000F096F9382000F093F90F208A
:1022F00000F090F9362000F089F9C82000F08AF942
:102300002A2000F083F9002000F084F9002000F07A
:1023100081F9002000F07EF9EF2000F07BF92B20FE
:1023200000F074F9002000F075F9002000F072F957
:10233000012000F06FF93F2000F06CF93A2000F026
:1023400065F9552000F066F9112000F05FF9734837
:10235000FFF7F8FC292000F059F901E16E480088E8
:1023600048F252518842F8D1CF2000F04FF90020B6
:1023700000F050F9C12000F04DF9302000F04AF98A
:10238000ED2000F043F9642000F044F9032000F050
:1023900041F9122000F03EF9812000F03BF9E820DD
:1023A00000F034F9852000F035F9102000F032F902
:1023B000782000F02FF9CB2000F028F9392000F028
:1023C00029F92C2000F026F9002000F023F9342010
:1023D00000F020F9022000F01DF9F72000F016F9B6
:1023E000202000F017F9EA2000F010F9002000F09A
:1023F00011F9002000F00EF9C02000F007F92120AB
:1024000000F008F9C12000F001F9112000F002F9F4
:10241000C52000F0FBF82D2000F0FCF8332000F080
:10242000F9F8362000F0F2F8002000F0F3F83A2036
:1024300000F0ECF8552000F0EDF8B12000F0E6F8DF
:10244000002000F0E7F8172000F0E4F8B62000F0D4
:10245000DDF80A2000F0DEF8A22000F0DBF8F6201C
:1024600000F0D4F8012000F0D5F8302000F0D2F8C8
:10247000F22000F0CBF8002000F0CCF8262000F08D
:10248000C5F8012000F0C6F8E02000F0BFF8D02029
:1024900000F0C0F8002000F0BDF8022000F0BAF80B
:1024A000072000F0B7F80B2000F0B4F81A2000F075
:1024B000B1F8312000F0AEF8542000F0ABF8402025
:1024C00000F0A8F8292000F0A5F8122000F0A2F8EA
:1024D000122000F09FF8122000F09CF8172000F066
:1024E00099F8E12000F092F8D02000F093F8002055
:1024F00000F090F8022000F08DF8072000F08AF834
:10250000052000F087F8252000F084F82D2000F049
:1025100081F8442004E00000AA020020FCBF020071
:1025200000F078F8452000F075F81C2000F072F8F3
:10253000182000F06FF8162000F06CF81C2000F056
:1025400069F81D2000F066F8112000F05FF80548DA
:10255000FFF7F8FB292000F059F82C2000F056F87E
:1025600010BD0000FCBF020010B50024042000F0E4
:102570004DF800BF1748008800BF1648008800F0DB
:102580002BF804464FF6FF7000EA042400F024F80C
:10259000044348F25250844201D1204610BDD3205A
:1025A00000F034F800BF0B48008800BF09480088DD
:1025B00000F012F804464FF6FF7000EA042400F021
:1025C0000BF8044349F24130844201D12046E5E74B
:1025D0000020E3E700000260014800887047000027
:1025E0000000026010B502210748FFF760F840F6CE
:1025F000FF20FFF7A7FB02210348FFF75AF840F638
:10260000FF20FFF79FFB10BD001801404FF0C041B5
:102610000880704701490880704700000000026090
:1026200070B506460D4629463046FDF79FFE044626
:102630000CB9002070BD2846FDF7AAFE044409A18C
:102640002046FDF793FE04460CB90020F2E7641C17
:1026500000E0641C20782028FBD020782228F8D0C5
:102660002046E7E73A0000002DE9FC5F044600BF82
:10267000FF221146104617F062FA0090BDF80010D4
:102680000846002201460190204625F05DFC2046C8
:102690001EF0D4F95149086051A1504800681FF05C
:1026A000D5F9002250494D48006825F04DFD3222F1
:1026B00050214A48006825F0C0FA20461EF0BEF9B5
:1026C0004A4908604AA1494800681FF0BFF9002242
:1026D0004A494648006825F037FD642211464348C0
:1026E000006825F0AAFA204621F086F90546022264
:1026F0004FF4A071284625F0F2FA882200212846DE
:1027000025F09BFA00BF00221146104617F017FA79
:102710000090BDF8001008460022014601902846AE
:1027200025F012FC20461EF089F9064634A13046F9
:102730001FF08CF900223149304625F005FD8C222E
:102740001E21304625F079FA20461EF077F907461B
:102750002EA138461FF07AF900222849384625F084
:10276000F3FC8C22B421384625F067FA20461CF091
:1027700063FD8046274940461DF007FCDC224FF4EC
:102780008771404625F059FA20461CF055FD8146D8
:10279000214948461DF0F9FB0A229621484625F0BA
:1027A0004CFA20461CF048FD82461C4950461DF05C
:1027B000ECFB9622FA21504625F03FFA20461CF009
:1027C0003BFD8346164958461DF0DFFB0A221146A1
:1027D000584625F032FABDE8FC9F00008003002037
:1027E0002D2D3A2D2D00000088F0040884030020D0
:1027F0002D2D2D2D2F2D2D2F2D2D000028210508BD
:10280000526F6F6D2D54656D700000004F757464CC
:102810006F6F7200C4280508941B05088016050810
:10282000EC0205080EB501A800F030F99DF809305A
:102830009DF8082008A10B4800681FF05FF99DF87B
:10284000070000909DF80630BDF8042006A10A4854
:1028500000681FF053F90EBD253032643A2530323E
:102860006400000080030020253034642F253032BE
:10287000642F2530326400008403002008B500274F
:102880001DF098FE25F0B0FD25F0D2FDFEF7B4FB5B
:1028900004462546284617F0A4FF00BF002021F07B
:1028A000ABF8064666E029F085FB00236A46591E10
:1028B000184630F055FF012852D10098C0B20528C3
:1028C0002CD008DC01280DD0022812D0032817D004
:1028D000042843D11BE0062827D007282CD0FF2846
:1028E0003CD130E024A0FEF74DFA0020FEF760FA5C
:1028F00035E027A0FEF746FA0A20FEF759FA2EE047
:1029000029A0FEF73FFA1920FEF752FA27E029A086
:10291000FEF738FA1E20FEF74BFA20E02DA0FEF756
:1029200031FA3720FEF744FA19E02EA0FEF72AFA12
:102930004B20FEF73DFA12E02DA0FEF723FA5520BA
:10294000FEF736FA0BE030A0FEF71CFA6420FEF723
:102950002FFA31462046FEF743FA00E000BF00BFE1
:10296000781C0746C82802D30027FFF75BFF052025
:1029700030F0BAFA97E700005B424F4F545D20E514
:10298000BC80E5A78BE887AAE6A3802E2E2E000048
:102990005B424F4F545D20E6A380E6B58BE5AD97D3
:1029A000E5BA932E2E2E00005B4F4B5D205732353B
:1029B000513634005B424F4F545D20E7AD89E5BE90
:1029C00085204553503832363620E4B88AE7BABFFE
:1029D0002E2E2E005B4F4B5D20455350383236363D
:1029E000000000005B4F4B5D20525443000000008C
:1029F0005B424F4F545D20E8BF9EE68EA52057698D
:102A00002D46692E2E2E00005B4F4B5D20E887AAD5
:102A1000E6A380E5AE8CE6889000000000BFFEE7EC
:102A200010B50420FEF792F945F65A21884222D0CB
:102A3000012000F0E7FB00BF412000F0C5FB0028AB
:102A4000FAD04FF4807000F0FDFB012000F0F4FBA1
:102A500000F056FC00F04AFC47F6FF7000F036FC30
:102A600000F044FC084800F038F845F65A210420EC
:102A7000FEF77AF907E000F043FC0121084600F078
:102A800007FC00F033FC10BD98F4040838B5044688
:102A900000F0F4FB00F5E14000906846FDF7A2FE6F
:102AA0000546A88A00F26C702080287C401CA0702B
:102AB000287BE070287A2071287960712878A071CD
:102AC00038BD10B501214FF0C05000F0F3FA0120DD
:102AD00000F066F8FFF7A4FF10BD30B58BB00446D8
:102AE0002088A0F26C700590A078401E0490E078D9
:102AF00003902079029060790190A07900900020E5
:102B000008906846FDF7AEFBA0F5E145284600F0C9
:102B1000CFFB00F0EBFB0BB030BD704770B5002170
:102B200000230F22C47804B3154C246804F4E06435
:102B3000C4F5E064210AC1F10403CA40447804FAF0
:102B400003F184781440214309010E4C0678A15505
:102B5000047804F01F050124AC4005786D11AD0028
:102B600005F1E025C5F8004109E0047804F01F05EF
:102B70000124AC40044D0678761145F8264070BD1E
:102B80000CED00E000E400E080E100E002490143D8
:102B9000024A1160704700000000FA050CED00E0E9
:102BA000014908627047000000000E4230B59DB038
:102BB0005DA15F48FDF7DAFB0446002C71D0A41D2F
:102BC000002004E0215C0DAA1154411CC8B2215C14
:102BD00039B1215C0D2904D0215C0A2901D03F289C
:102BE000F0DB00210DAA115406A807A908AA09AB19
:102BF000CDE90132CDE903100BA80AAB0CAA4DA117
:102C000000900DA8FDF7F0FB062870D10898083059
:102C100008900898182805DB0898183808900A9832
:102C2000401C0A904AA001F023FD0DA953A001F019
:102C30001FFD56A10BA8FDF7B2FB08B9012047E024
:102C400053A10BA8FDF7ABFB08B9022040E051A14E
:102C50000BA8FDF7A4FB08B9032039E04EA10BA88F
:102C6000FDF79DFB08B9042032E04CA10BA8FDF74D
:102C700096FB08B905202BE049A10BA8FDF78FFBB7
:102C800008B9062024E047A10BA8FDF788FB08B986
:102C900007201DE044A10BA8FDF781FB10B9082017
:102CA00016E029E041A10BA8FDF779FB08B909203E
:102CB0000EE03FA10BA8FDF772FB08B90A2007E060
:102CC0003CA10BA8FDF76BFB08B90B2000E00C2022
:102CD0000546DDE907210698CDE9001202902A4653
:102CE00035A0DDE9091301F0C3FC08E0FFE70DA9F9
:102CF0003CA001F0BDFC02E040A001F0B9FC47A1FE
:102D00000B48FFF78DFC044644B140220DA9204634
:102D100000F0AEFC0DA944A001F0AAFC46A001F011
:102D2000A7FC1DB030BD0000446174653A2000006E
:102D3000D8DB00202533732025326420253373200F
:102D4000253464202532643A2532643A2532640001
:102D50000D0A3D3D3D3D3D3D3D3D3D3D3D204E65EA
:102D600074776F726B2054696D65203D3D3D3D3D2C
:102D70003D3D3D3D3D3D0D0A000000002020474DFA
:102D800054202020203A2025730D0A004A616E004D
:102D9000466562004D617200417072004D617900BC
:102DA0004A756E004A756C00417567005365700086
:102DB0004F6374004E6F760020204265696A696E29
:102DC000673A20253034642D253032642D25303289
:102DD0006420253032643A253032643A253032643A
:102DE0000D0A00005B54494D455D20526177204437
:102DF0006174653A2025730D0A0000005B54494D4B
:102E0000455D204E6F20446174652068656164658E
:102E10007220666F756E640D0A000000226F726981
:102E200067696E22000000002020495020202020E9
:102E3000203A2025730D0A003D3D3D3D3D3D3D3D81
:102E40003D3D3D3D3D3D3D3D3D3D3D3D3D3D3D3DB2
:102E50003D3D3D3D3D3D3D3D3D3D3D3D0D0A0D0A68
:102E60000000000030B5A5B03D4AD2E9013110683C
:102E7000D268CDE922312492219040223849103184
:102E800011A8FDF743FA364B5033D3E90020D3E9BC
:102E900002130EAC0BC40D92314B60330FCB09AC57
:102EA0000FC420222E49703101A8FDF72FFA2DA161
:102EB0002F48FFF7B5FB044624B1102221A9204674
:102EC00000F0D6FB2BA12A48FFF7AAFB044624B149
:102ED000102209A9204600F0CBFB2AA12448FFF7C5
:102EE0009FFB044624B110220DA9204600F0C0FB30
:102EF00027A11F48FDF73AFA054655B128A12846F3
:102F0000FFF78EFB044624B1402211A9204600F0B1
:102F1000AFFB25A11648FFF783FB044624B120220E
:102F200001A9204600F0A4FB23A001F0A1FB2DA0E5
:102F300001F09EFB09AA21A930A001F099FB11A97B
:102F400037A001F095FB0DA93AA001F091FB01A972
:102F50003EA001F08DFB44A001F08AFB25B030BDFE
:102F6000E82805082274656D705F432200000000A8
:102F7000D8DB0020224665656C734C696B65432283
:102F8000000000002268756D696469747922000090
:102F9000227765617468657244657363220000007E
:102FA0002276616C756522002277696E64737065A4
:102FB00065644B6D706822000D0A3D3D3D3D3D3D11
:102FC0003D3D3D3D3D205765617468657220526509
:102FD000706F7274203D3D3D3D3D3D3D3D3D3D0D9D
:102FE0000A0000002020436974792020202020203E
:102FF000203A20586927616E0D0A00002020546590
:103000006D70657261747572653A20257320432076
:10301000286665656C732025732043290D0A00001E
:10302000202057656174686572202020203A202591
:10303000730D0A00202048756D6964697479202039
:10304000203A20257325250D0A000000202057690D
:103050006E64205370656564203A202573206B6D83
:103060002F680D0A000000003D3D3D3D3D3D3D3DCA
:103070003D3D3D3D3D3D3D3D3D3D3D3D3D3D3D3D80
:103080003D3D3D3D3D3D3D3D3D3D3D3D0D0A0D0A36
:103090000000000029B1064A52690243044B5A61FC
:1030A00004E0034A52698243014B5A6170470000B1
:1030B0000010024029B1064AD2690243044BDA618A
:1030C00004E0034AD2698243014BDA617047000091
:1030D0000010024029B1064A92690243044B9A61EA
:1030E00004E0034A92698243014B9A6170470000F1
:1030F0000010024030B500210022002400232D4D95
:103100006D6805F00C0121B1042905D0082923D1EF
:1031100005E0294D056022E0274D05601FE0254DA3
:103120006D6805F47012234D6D6805F48034022536
:1031300005EB92421CB9214D554305600BE01D4D36
:103140006D6805F400351DB11C4D5543056002E066
:10315000194D5543056002E0174D056000BF00BFE3
:10316000144D6D6805F0F0010909154D6B5C05689B
:10317000DD4045600F4D6D6805F4E061090A104DB2
:103180006B5C4568DD4085600A4D6D6805F46051F3
:10319000C90A0B4D6B5C4568DD40C560054D6D6827
:1031A00005F44041890B074D6B5CC568B5FBF3F531
:1031B000056130BD0010024000127A0000093D0098
:1031C000000000201000002010B50146002200235E
:1031D00000204A11012A02D1094C236806E0022A84
:1031E00002D1074C236A01E0054C636A01F01F021B
:1031F000012494401C400CB1012000E0002010BDCF
:103200000010024000210B4A11700A4A203A82F84D
:103210002010012802D0042808D103E00121054A2A
:10322000117004E00521034A117000E000BF00BFE7
:1032300070470000201002400149086070470000FC
:103240003C0442420249096A0143014A1162704743
:10325000001002400348008840F010000149088037
:103260007047000004280040034800884FF6EF71C3
:1032700008400149088070470428004000210348A5
:103280000188001F008841EA004070471C28004068
:1032900029B1064A12880243044B1A8004E0034A0B
:1032A00012888243014B1A807047000000280040BA
:1032B00000B50246FFF7CEFF100C03490880091D38
:1032C0000A80FFF7D1FF00BD1828004000B5024674
:1032D000FFF7C0FFC2F3034003490880091D0A80BD
:1032E000FFF7C2FF00BD00000828004000BF0348F0
:1032F000008800F020000028F9D070470428004022
:10330000074800884FF6F77108400549088000BF5C
:103310000348008800F008000028F9D0704700003A
:103320000428004021B1028842F04002028004E0FB
:1033300002884FF6BF731A400280704700B587B00D
:1033400001210803FFF7C6FE01211420FFF7C2FE8A
:103350000120ADF8040010208DF8070003208DF83F
:10336000060001A92848FEF70EF92020ADF8040058
:1033700018208DF8070003208DF8060001A92348C6
:10338000FEF701F94020ADF8040004208DF8070095
:1033900001A91E48FEF7F7F88020ADF804001820B8
:1033A0008DF8070003208DF8060001A91748FEF7E5
:1033B000EAF801211448FEF77CF90020ADF8080076
:1033C0004FF48270ADF80A000020ADF80C00022026
:1033D000ADF80E000120ADF810004002ADF812006B
:1033E0000820ADF814000020ADF816000720ADF855
:1033F000180002A9064800F07DF801210448FFF7F3
:1034000091FF07B000BD000000100140000801401E
:10341000003001402DE9F04100240025002600275E
:1034200001210F48FEF743F99F2000F01BF8FF2011
:1034300000F018F80546FF2000F014F80646FF20BB
:1034400000F010F8074601210548FEF732F928047C
:1034500040EA062040EA07042046BDE8F08100006B
:103460000010014010B504464FF480501849086020
:1034700009E017490868411E154A116018B9002073
:1034800000F05CF810BD0221124800F025F8002879
:10349000EFD021460F4800F02BF84FF480500C4934
:1034A000086009E00A490868411E094A116018B914
:1034B000012000F043F8E5E70121064800F00CF890
:1034C0000028EFD0034800F010F8C0B2DAE700009F
:1034D00084020020003001400246002013890B4086
:1034E0000BB1012000E00020704701468889704739
:1034F0008181704710B50022028802F441520B8886
:103500004C8823438C882343CC8823430C89234352
:103510004C8923438C892343CC8923431A4302805B
:10352000838B4FF2FF74234083830B8A038210BD89
:1035300010B504462046FFF795FF10BD10B50446B0
:10354000214602A001F094F8FF2010BD5B535049C2
:10355000204552524F525D2054696D656F7574213C
:1035600020636F64653D25640D0A000010B500F00E
:1035700001F810BD0CB500200190009033480068A0
:1035800040F480303149086000BF3048006800F4E2
:10359000003000900198401C0190009818B90198E3
:1035A000B0F5A06FF1D12948006800F4003010B1E7
:1035B0000120009001E0002000900098012843D1F4
:1035C0002348006840F01000214908600846006860
:1035D00020F0030008600846006840F00200086020
:1035E0001A484068194948600846406848600846DB
:1035F000406840F4806048600846406820F47C10D1
:1036000048600846406840F4E81048600846006892
:1036100040F08070086000BF0C48006800F0007047
:103620000028F9D00948406820F0030007494860A5
:103630000846406840F00200486000BF0348406808
:1036400000F00C000828F9D10CBD00000010024069
:103650000020024006E04FF47A702FF045FC02A0F3
:1036600001F006F8F7E7000072756E2E2E2E0A00A4
:1036700010B50346002003E01C5C0C54441CE0B26F
:103680001C5C74B11C5C222C0BD01C5C5C2C08D024
:103690001C5C0D2C05D01C5C0A2C02D0541E8442EC
:1036A000EADC00240C5410BD042808D14FF0E021BE
:1036B000096941F004014FF0E022116107E04FF089
:1036C000E021096921F004014FF0E0221161704707
:1036D00010B52FF07DFF012801D02FF0A3FE10BD03
:1036E00000B585B06846FFF705FD0420FFF7DCFF55
:1036F0000B49009808604FF47A710098B0FBF1F024
:103700004FF0E02148610846006940F0020008617E
:103710000846006940F00100086105B000BD0000E6
:103720008002002010B51348006840F001001149E4
:10373000086008464068104908400E49486008463D
:1037400000680E4908400B4908600846006820F4EC
:10375000802008600846406820F4FE0048604FF46E
:103760001F008860FFF702FF4FF000600449086007
:1037700010BD0000001002400000FFF8FFFFF6FE41
:1037800008ED00E010B540F225511B4800F0EBF8C1
:10379000D8B1194800F0A2F9C4B21848B0F8000432
:1037A000C0F30E0040F2FF3188420EDA1349B1F83F
:1037B0000014C1F30E00411C104AB2F8002461F35A
:1037C0000E020E49A1F800240C5440F224410A488C
:1037D00000F0C9F801280DD10848B0F8000420F421
:1037E000004000F500400549A1F80004024800F03F
:1037F00075F9C4B210BD000000380140D6D30020D6
:1038000010B540F225511B4800F0ADF8D8B1194869
:1038100000F064F9C4B21848B0F80004C0F30E0018
:1038200040F2FF3188420EDA1349B1F80014C1F3B7
:103830000E00411C104AB2F8002461F30E020E493A
:10384000A1F800240C5440F224410A4800F08BF8FF
:1038500001280DD10848B0F8000420F4004000F51C
:1038600000400549A1F80004024800F037F9C4B24D
:1038700010BD000000480040D4CF002021B1828953
:1038800042F40052828104E082894DF6FF731A40AF
:103890008281704700B587B001210420FFF71AFC30
:1038A00001218803FFF716FC4FF40070ADF81800F3
:1038B00018208DF81B0003208DF81A0006A9214856
:1038C000FDF761FE4FF48060ADF8180004208DF81C
:1038D0001B0006A91B48FDF756FE4FF4E13002908D
:1038E0000020ADF80C00ADF80E00ADF81000ADF8FA
:1038F00014000C20ADF8120002A9134800F082F861
:1039000001211148FFF7BAFF012240F225510E486C
:1039100000F053F8012240F224410B4800F04DF82A
:1039200025208DF8040007208DF8050000208DF873
:10393000060001208DF8070001A8FFF7EFF807B097
:1039400000BD000000080140003801400246002090
:10395000B1F5007F00D100BF13880B400BB10120EF
:1039600000E00020704770B50246002400230025C7
:10397000002040F66A16B14200D100BFC1F34215E3
:1039800001F01F03012606FA03F3012D02D19689E7
:10399000334006E0022D02D1168A334001E0968AB8
:1039A00033400C12012606FA04F41688344013B191
:1039B0000CB1012000E0002070BDF0B503460024EA
:1039C00000260025002040F66A17B94200D100BF4A
:1039D0001846C1F3421401F01F06012707FA06F545
:1039E000012C01D10C3004E0022C01D1103000E098
:1039F00014301AB107682F43076002E00768AF432D
:103A00000760F0BD2DE9F04786B005460E4600245C
:103A1000A24600BFA1460027B08900B100BF2F46D3
:103A20002C8A4CF6FF700440F08804432C82AC8949
:103A30004EF6F3100440B088318908437189084379
:103A40000443AC81AC8A4FF6FF400440B089044384
:103A5000AC8201A8FFF74EFB1F48874202D1DDF878
:103A600010A001E0DDF80CA0A88900F4004040B1EE
:103A70000AEBCA0000EB0A1031684900B0FBF1F80C
:103A800007E00AEBCA0000EB0A1031688900B0FBBE
:103A9000F1F86420B8FBF0F004012009642101FB77
:103AA0001089A88900F4004040B1322000EBC90021
:103AB000B0FBF1F000F00700044308E0322000EB17
:103AC00009106421B0FBF1F000F00F0004432C81D9
:103AD00006B0BDE8F0870000003801400146888844
:103AE000C0F308007047C1F30802828070470FB42A
:103AF00070B586B006460CA8019073E00B9800786C
:103B00005C281CD10B98401C0B9000786E2809D0C3
:103B100072280FD10D213046FFF7E5FF0B98401CAE
:103B20000B900BE00A213046FFF7DDFF0B98401C9D
:103B30000B9003E00B98401C0B9000BF4BE00B98E0
:103B40000078252840D10B98401C0B900078642801
:103B500018D0732833D1019810C801900BE0217858
:103B60003046FFF7C0FF00BF80213046FFF7EEFE72
:103B70000028F9D0641C20780028F0D10B98401C54
:103B80000B9020E0019820C801900A2202A9284643
:103B900012F084FB02AC0BE021783046FFF7A3FF64
:103BA00000BF80213046FFF7D1FE0028F9D0641C09
:103BB00020780028F0D10B98401C0B9003E00B9864
:103BC000401C0B9000BF06E00B9810F8011B0B90F7
:103BD0003046FFF788FF00BF80213046FFF7B6FE72
:103BE0000028F9D00B980078002887D106B070BC67
:103BF0005DF814FB00BFFEE770B504460D4629468C
:103C00002046FFF770FF00BF80212046FFF79EFE91
:103C10000028F9D070BD70B506460C46002500BFDF
:103C2000615D3046FFF7E8FF6D1C605D0028F7D14D
:103C300000BF40213046FFF789FE0028F9D070BD53
:103C400030B502460B464FF6FF70002115E0555C7B
:103C500080EA052000240DE000F400452DB141F27A
:103C6000210585EA4005A8B203E04FF6FF7505EA95
:103C70004000641C082CEFD3491C9942E7D330BDA7
:103C800030B54FF48050002118E001EB01120D4BCC
:103C90009A5C5A2A10D101EB01130A4C2344D3F841
:103CA000073001EB0114074D2C44D4F803401A19D6
:103CB000824200D9104600BF4A1C11B28029E4DBC1
:103CC00030BD000054C7002070B54FF408650024D3
:103CD00004E0204600F008FA04F58054B4F5805F53
:103CE000F7D32A460349002000F03EFA002002499B
:103CF000087070BD54C700208C02002010B54FF42E
:103D0000086422460249002000F0AAF910BD000014
:103D100054C7002010B500F065F9FFF7EFFFFFF77B
:103D2000AFFF0849086000200749087007A000F0AD
:103D30009FFC04480068820A024801680DA000F058
:103D400097FC10BD880200208C0200205B573235A2
:103D50005136345D20E69687E4BBB6E7B3BBE7BBDC
:103D60009FE5889DE5A78BE58C96E5AE8CE688906F
:103D70000A000000202020202020202020E4B88BF2
:103D8000E4B880E4B8AAE58FAFE58699E59CB0E594
:103D90009D803A2030782530365820282564204BE5
:103DA00042290A00F8B506460F46154607B115B96F
:103DB0006FF00200F8BD304600F0B8F80446002C61
:103DC00007DBA52004EB04113C4A505401203C4978
:103DD0000870FFF755FF3B49086008460068284413
:103DE000B0F5000F0AD908460068C0F50002294660
:103DF00035A000F03DFC4FF0FF30DBE731482A46AC
:103E000031460368404800F033FC2A4639462D48C5
:103E1000006800F0A9F910B16FF00300CAE700F0E4
:103E2000A1F80446002C05DA38A000F021FC6FF060
:103E30000100BFE75A2004EB0411204A505404EB60
:103E4000041011460844A0F8016004EB0410084473
:103E5000C0F803501B48006804EB04111144C1F87A
:103E6000070029463846FFF7EBFE04EB0411134A1E
:103E70001144A1F80B00012011490870FFF724FF3D
:103E80001048006828440F49086004EB04100B49EF
:103E90000844D0F807002844401E009004EB0410AA
:103EA0000844D0F8073004EB04100844B0F80B20A5
:103EB00031461D4800F0DCFB00207BE754C70020A2
:103EC0008C020020880200205B5732355136345D69
:103ED00020E7A9BAE997B4E4B88DE8B6B3EFBC819E
:103EE000E99C80E8A68120256C7520E5AD97E88ADD
:103EF00082EFBC8CE4BB85E589A920256C7520E5A3
:103F0000AD97E88A820A00009C2E05085B5732357F
:103F10005136345D20E79BAEE5BD95E5B7B2E6BB13
:103F2000A1EFBC810A000000E02E05080246002136
:103F300010E001EB01100A4B185C5A2808D101EB84
:103F400001101844B0F80100904201D108467047B2
:103F5000481C01B28029ECDB4FF0FF30F7E700008E
:103F600054C70020002109E001EB0110064A105C53
:103F70005A2801D008467047481C01B28029F3DB5B
:103F80004FF0FF30F7E7000054C700202DE9F04163
:103F900007460C4615463846FFF7C8FF0646002E72
:103FA00003DA4FF0FF30BDE8F08134B106EB0610C4
:103FB00007490844D0F80700206035B106EB061029
:103FC00003490844D0F8030028600020EBE7000014
:103FD00054C7002070B5FFF753FE04464FF40005A8
:103FE000281B70BD10B5FFF7A9F901210148FDF7A5
:103FF00060FB10BD001001402DE9F04104460F4662
:1040000015460DB9BDE8F081B5F5807F01DD4FF4AF
:10401000807500F099F801211048FDF748FB022057
:10402000FFF786FAC4F30740FFF782FAC4F30720CC
:10403000FFF77EFAE0B2FFF77BFA002604E0B85DF6
:10404000FFF776FA701C86B2AE42F8DB0121034816
:10405000FDF72FFB00F068F800BFD3E70010014028
:104060002DE9F04104460F4616460EB9BDE8F08131
:1040700001211048FDF71BFB0320FFF759FAC4F399
:104080000740FFF755FAC4F30720FFF751FAE0B2F3
:10409000FFF74EFA002504E0FF20FFF749FA7855B4
:1040A0006D1CB542F8D301210248FDF702FB00BFA9
:1040B000DCE700000010014010B5FFF7ABF910BDC0
:1040C00010B501210748FDF7F2FA0520FFF730FA95
:1040D000FF20FFF72DFA044601210248FDF7E9FA17
:1040E000204610BD0010014010B5044600F02CF829
:1040F00001210C48FDF7DBFA2020FFF719FAC4F381
:104100000740FFF715FAC4F30720FFF711FAE0B2F2
:10411000FFF70EFA01210348FDF7CBFA00F004F88F
:1041200010BD00000010014010B56FF07F4403E0A7
:10413000601E041E00D105E0FFF7C2FF00F0010081
:104140000028F5D100BF10BD10B501210548FDF7CD
:10415000AEFA0620FFF7ECF901210248FDF7A9FAB3
:1041600010BD0000001001402DE9FE4F8046894639
:104170009246564644464FF0000B4FF0FF300290F7
:104180001EE0E0B201900198C0F5807000900098A8
:10419000864201D2304600E000980546270B02987F
:1041A000874203D02046FFF79FFF0297AAB209EB90
:1041B0000B012046FFF720FF2C44AB44761B00BFC9
:1041C000002EDED10020BDE8FE8F01B5002007E003
:1041D0000C2100BF0A1EA1F10103D9B2FAD1401C83
:1041E00000998842F4D308BD2DE9FC5F05460C46D2
:1041F0000126684600F0CAF8002865D0BDF9020023
:10420000FCF7AEFA83463248007800EB400004EB3E
:10421000C00041685846FCF771FA8146BDF90000BC
:10422000FCF79EFA83462A48007800EB400054F8D9
:1042300030105846FCF762FA82464946FCF706FA07
:1042400080462348007800EB400004EBC000816802
:104250004046FCF7FBF90746FCF78BFA00B22880D2
:10426000BDF90200FCF77CFA83461948007800EBA0
:10427000400004EBC00001695846FCF73FFA814654
:10428000BDF90000FCF76CFA83461148007800EB9A
:10429000400004EBC000C1685846FCF72FFA824684
:1042A0004946FCF7D3F980460948007800EB400006
:1042B00004EBC00041694046FCF7C8F90746FCF72B
:1042C00058FA00B2688000E000263046BDE8FC9F46
:1042D000A802002008B501216020FEF7FBFE0120A6
:1042E000ADF800008DF8020010208DF8030069463B
:1042F0001B48FDF748F90420ADF80000694618484E
:10430000FDF741F90820ADF8000001208DF802000A
:1043100048208DF8030069461148FDF734F94FF441
:104320000050ADF8000001208DF8020010208DF83B
:10433000030069460B48FDF726F94FF40051094880
:10434000FDF7B5F91020ADF8000048208DF8030006
:1043500069460348FDF717F903A000F089F908BD85
:104360000018014000140140E8A7A6E691B8E588CE
:104370009DE5A78BE58C966F6B0A000010B504468F
:10438000204600F043F900F0C1F810BD2DE9F047D8
:104390008CB00646002528216846FBF7D0FF00BFF9
:1043A0000AA90BA800F09EF8BDF92C002DF8150005
:1043B000BDF9281005A820F81510681CC5B21021F9
:1043C0004648FDF76BF908B90A2DE9DB102143488F
:1043D000FDF764F910B10020414908700A2D7BD126
:1043E000BDF90070B846BDF91490CA4601240EE02C
:1043F0003DF91400B84202DA3DF9147005E03DF9C8
:104400001400404501DD3DF91480601CC4B20A2C43
:10441000EEDB012412E005A830F91400484503DA68
:1044200005A830F9149007E005A830F914005045AC
:1044300002DD05A830F914A0601CC4B20A2CEADB26
:10444000BDF90000BDF902100844BDF9041008448C
:10445000BDF906100844BDF908100844BDF90A105A
:104460000844BDF90C100844BDF90E100844BDF90C
:1044700010100844BDF912100844C01BA0EB08003E
:10448000C01000B23080BDF91410BDF9160001440F
:10449000BDF918000144BDF91A000144BDF91C0022
:1044A0000144BDF91E000144BDF920000144BDF9DD
:1044B00022000144BDF924000144BDF9260008444E
:1044C000A0EB0900A0EB0A00C01000B27080012030
:1044D0000CB0BDE8F087FFE70020F9E700180140C5
:1044E0006C0300202DE9F04104460D469020FFF7B3
:1044F00045FF06B20120FFF768FED020FFF73EFF20
:1045000007B226802F80BDE8F081000070B500253D
:1045100004211148FDF7CBF801210F48FDF7C9F838
:10452000002414E001210C48FDF7C1F808210A48D5
:10453000FDF7B4F80646C4F10B0006FA00F0284374
:1045400085B201210448FDF7B4F8601CC4B20C2CFC
:10455000E8DB284670BD00000018014010B50024BB
:104560002748007820B1012811D002283FD12FE040
:1045700010212448FDF792F820B901202049087045
:10458000002403E000201E490870002434E01021BC
:104590001C48FDF783F8A0B91B480068401C1A4965
:1045A000086008460068022806D90020086002203A
:1045B0001349087001240AE0012011490870002401
:1045C00005E00020104908600D490870002413E040
:1045D00010210C48FDF762F820B902200849087044
:1045E000012403E0002006490870002404E00020B4
:1045F00003490870002400BF00BF204610BD000022
:104600006D030020001801407003002070B50546BE
:1046100004211648FDF74BF801211448FDF747F82F
:1046200000241FE0C4F1070045FA00F000F001008B
:1046300020B104210D48FDF73CF803E004210B48AC
:10464000FDF735F80520FFF7C0FD01210748FDF70C
:1046500030F80520FFF7B9FD01210448FDF727F8E0
:10466000601CC4B2082CDDDB70BD000000180140E6
:104670000FB4054B10B503A9044A029802F08AFA58
:1046800010BC5DF814FB000045310108D403002084
:104690000FB4084B10B504A902AA039802F07AFAE5
:1046A000044602A9002002F0A6FC204610BC5DF8DA
:1046B00014FB0000F76F000802E008C8121F08C1D1
:1046C000002AFAD170477047002001E001C1121F93
:1046D000002AFBD1704700002DE9F04780460D46C7
:1046E000D8F81040A0680068A84206D8A068006802
:1046F000A16889880844A84202D20020BDE8F0875A
:1047000060690068A84202D16069466806E0AAB202
:10471000A368198A986803F0CDFA0646701C00B3A6
:10472000606800EBC60760694660606905603979BA
:10473000628AC2F343225143C81DC11700EB517175
:104740004FEAE109787900FB09FA3968C1F31301EE
:10475000054A1268881852460449FFF781FC03484D
:10476000CCE70020CAE70000B4030020D8D900201D
:104770002DE9F04780460D4616469946D8F8104078
:10478000A0680068B04206D8A0680068A16889885F
:104790000844B04202D20020BDE8F087606900689A
:1047A000B04202D16069476806E0B2B2A368198AD4
:1047B000986803F07FFA0746781CD8B1606800EB70
:1047C000C70160694760606906600868000DA880DD
:1047D000487928810879E88091F90600688191F983
:1047E0000700A881608A400AAA7B60F30302AA73CB
:1047F0000120D1E70020CFE770B50446002508E08E
:104800002168481C20600878303805EB850100EBF2
:1048100041052168087800F004F80028F0D1284606
:1048200070BD0146302903DB392901DC01207047C6
:104830000020FCE710B54021074801F097FB00225B
:104840001E21064827F042FB0549086003F0F0F8F6
:1048500000200449087010BD88450020FD7A00083A
:10486000080200200402002030B50346B1F90040E0
:10487000B2F90050AC4202DDB1F9004001E0B2F9FA
:1048800000401C80B1F90240B2F90250AC4202DD96
:10489000B1F9024001E0B2F902405C80B1F9044094
:1048A000B2F90450AC4202DAB1F9044001E0B2F9C5
:1048B00004409C80B1F90640B2F90650AC4202DADD
:1048C000B1F9064001E0B2F90640DC800120B3F9FD
:1048D0000040B3F90450AC4205DCB3F90240B3F92F
:1048E0000650AC4200DD002030BDF8B504460D4650
:1048F00016460027B4F90000B5F90010884212DB13
:10490000B4F90200B5F9021088420CDBB4F90400D6
:10491000B5F90410884206DCB4F90600B5F90610B2
:10492000884200DC01270FB90020F8BD0EB9012034
:10493000FBE72088ADF800006088ADF80200324641
:104940006946284600F0A7F808B90020EDE7A088DE
:10495000ADF800006088ADF802003246694628468E
:1049600000F099F808B90020DFE72088ADF80000D2
:10497000E088ADF8020032466946284600F08BF820
:1049800008B90020D1E7A088ADF80000E088ADF8B4
:10499000020032466946284600F07DF808B900203A
:1049A000C3E70120C1E70246B2F90000B1F90430C3
:1049B000984213DCB2F90400B1F9003098420DDBE3
:1049C000B2F90200B1F90630984207DCB2F90600EC
:1049D000B1F90230984201DB012070470020FCE76A
:1049E000F8B504460D461646B4F90400B5F90010B2
:1049F000884211DBB4F90600B5F9021088420BDBDE
:104A0000B4F90000B5F90410884205DCB4F90200DD
:104A1000B5F90610884201DD0120F8BD0EB900206D
:104A2000FBE72088ADF800006088ADF80200324650
:104A30006946284600F02FF808B10020EDE7A0886D
:104A4000ADF800006088ADF802003246694628469D
:104A500000F021F808B10020DFE72088ADF8000061
:104A6000E088ADF8020032466946284600F013F8A7
:104A700008B10020D1E7A088ADF80000E088ADF8CB
:104A8000020032466946284600F005F808B10020C9
:104A9000C3E70120C1E72DE9FC5F05460E46144639
:104AA0004FF0000AB6F90000B5F90010884213DB98
:104AB000B6F90000B5F9041088420DDCB6F9020021
:104AC000B5F90210884207DBB6F90200B5F9061005
:104AD000884201DC4FF0010ABAF1000F02D1002038
:104AE000BDE8FC9F002C01DC0120F9E7284612F00C
:104AF000F4FE834600EBDB704710284612F065FE9B
:104B0000834600EBDB704FEA6008474501DA384620
:104B100000E0404681464C4500DD4C462888ADF813
:104B200000002888204400B2ADF804006888ADF881
:104B300002006888204400B2ADF806000022314629
:104B40006846FFF7A8FF80B1BDF80400204400B21A
:104B5000ADF80400BDF80600204400B2ADF8060030
:104B60003146684623F018FCBAE7E888001B00B21B
:104B7000ADF80200E888ADF806000022314668462C
:104B8000FFF789FF80B1BDF80400204400B2ADF802
:104B90000400BDF80200001B00B2ADF8020031466F
:104BA000684623F0F9FB9BE7A888001B00B2ADF82C
:104BB0000000A888ADF80400002231466846FFF7DF
:104BC0006AFF80B1BDF80000001B00B2ADF8000024
:104BD000BDF80200001B00B2ADF802003146684685
:104BE00023F0DAFB7CE76888ADF80200688820448F
:104BF00000B2ADF80600002231466846FFF74BFFD1
:104C000080B1BDF80000001B00B2ADF80000BDF897
:104C10000600204400B2ADF806003146684623F095
:104C2000BBFB5DE701205BE710B5B1F90030B2F9DD
:104C30000040A34202DAB1F9003001E0B2F90030DD
:104C40000380B1F90230B2F90240A34202DAB1F9AD
:104C5000023001E0B2F902304380B1F90430B2F918
:104C60000440A34202DDB1F9043001E0B2F904309E
:104C70008380B1F90630B2F90640A34202DDB1F9F2
:104C8000063001E0B2F90630C38010BD2DE9FF47C0
:104C9000064627F0BCF88146002003901EB19B49D0
:104CA000F068086003E015F003FD98490860974933
:104CB0000968086923F0CEFA94480068406920B179
:104CC00092490968486923F0C5FA90490968C8699A
:104CD00023F0C0FA8D490968086A23F0BBFA8B48B3
:104CE0000068006940B9002088490968A1F85001AE
:104CF00000BF00BFBDE8FF8723F04AFE23F090FD10
:104D000082480068B0F8500100284BD07F48006806
:104D10000068007CC0F34000E8B17C48006815F0F2
:104D200045FD401E04B27948006815F0D9FC401ECC
:104D300007B23B460022114601A8009412F012FE71
:104D400001A8724909680968896B48606F48006862
:104D500005F0E2FE00BF4FF480716C48006830300F
:104D60001DF07DFC20216948006800F598701DF059
:104D700076FC002065490968A1F85001484627F0F3
:104D800039F80390614800680068406A50B15F4993
:104D9000096808685D49096809684B6A5C490A68DE
:104DA000039998471DF092F900F0F6F800F0BEF86C
:104DB00058484569002D53D100BF15F079FC0746CE
:104DC00015F0A9FC04461BF039FE054600227F21A0
:104DD000284623F0D6F800BF00221146104614F0F2
:104DE000EEFD0190BDF80410084600220146029035
:104DF000284623F0A9F800BFFF221146104614F000
:104E0000DEFD0190BDF80410084600220146029024
:104E1000284623F088F900220321284623F069F967
:104E200000220321284623F03DF9002203212846D1
:104E300023F045F900220321284623F04DF90022F2
:104E40000321284623F062F933A128461CF0FEFD19
:104E500000231A46062128461EF09AF82D4845617F
:104E60002C49086826F0C6FFB0F5967F10D2284876
:104E7000006841F28831884245D926484068039944
:104E800008442449486008468068401C88603AE02D
:104E900026F0BDFF1F4908601C4800684068006894
:104EA0004FF47A71B1FBF0F71A48406810B901204D
:104EB000184948601748806808B93C4608E015481A
:104EC00080684FF47A71484312494968B0FBF1F4A5
:104ED0000020104948608860BC4200D93C460D481B
:104EE000006920440B4908610846C068401CC8603E
:104EF00027F05AF8C0F164084346224607A1284625
:104F00001CF0FCFD00BF00BFF4E60000C000002064
:104F1000BC000020C44300203F000000257520464F
:104F200050530A25752525204350550010B50024FF
:104F300016E0C4EBC4000C4951F8200030B1C4EBBA
:104F4000C401094A52F821001DF072F9C4EBC401F2
:104F5000054A02EB81001C211DF081FB601CC4B2DC
:104F6000042CE6DB10BD0000644600200146094A1F
:104F700010680BE042688A4202D002688A4204D17B
:104F8000027E22F00102521C027640690028F1D113
:104F900070470000940000207047000010B5042105
:104FA000014800F0E3FF10BD7C45002010B51C2136
:104FB000014800F0DBFF10BD944500202DE9FF4FB4
:104FC0008BB004469A46199DBAF1000F11D118987A
:104FD000B0F5807F0DD10020208060800C98401EAD
:104FE00000B2A0800D98401E00B2E0800FB0BDE876
:104FF000F08FB5F900004042189948430121C1EBF8
:10500000202000B22080B5F90200404218994843A0
:105010000121C1EB202000B26080B5F900100C988E
:10502000401A18994843022101EB202000B2A080C9
:10503000B5F902100D98401A18994843022101EB66
:10504000202000B2E080BAF1000F14D12088298816
:10505000084400B2208060886988084400B26080FB
:10506000A0882988084400B2A080E08869880844A4
:1050700000B2E080BAE70A209AFBF0F00A900A98A2
:10508000401C09900A9800EB8000AAEB400B0A989C
:1050900000B227F0BFF90890099800B227F0BAF9DA
:1050A00007900A985A3000B227F0B4F90690099890
:1050B0005A3000B227F0AEF90590CBF10A010898FA
:1050C0004143079800FB0B100A2190FBF1F6CBF14E
:1050D0000A0106984143059800FB0B100A2190FB3A
:1050E000F1F776117F11B4F90080B4F9029007FB53
:1050F00008F006FB1900298801EBA02000B2ADF8EA
:10510000100006FB08F007FB0900698801EBA020EE
:1051100000B2ADF81200B4F90480B4F9029007FBB4
:1051200008F006FB1900298801EBA02000B2ADF8B9
:105130000C0006FB08F007FB0900698801EBA020C2
:1051400000B2ADF80E00B4F90080B4F9069007FB88
:1051500008F006FB1900298801EBA02000B2ADF889
:10516000080006FB08F007FB0900698801EBA02096
:1051700000B2ADF80A00B4F90480B4F9069007FB58
:1051800008F006FB1900298801EBA02000B2ADF859
:10519000040006FB08F007FB0900698801EBA0206A
:1051A00000B2ADF80600BDF90800BDF91010884244
:1051B00002DABDF9080001E0BDF91000BDF90410E4
:1051C000BDF90C20914202DABDF9041001E0BDF9ED
:1051D0000C1088420BDABDF90800BDF910108842A6
:1051E00002DABDF908000DE0BDF910000AE0BDF9D2
:1051F0000400BDF90C10884202DABDF9040001E098
:10520000BDF90C002080BDF90800BDF910108842DE
:1052100002DDBDF9080001E0BDF91000BDF9041080
:10522000BDF90C20914202DDBDF9041001E0BDF989
:105230000C1088420BDDBDF90800BDF91010884242
:1052400002DDBDF908000DE0BDF910000AE0BDF96E
:105250000400BDF90C10884202DDBDF9040001E034
:10526000BDF90C00A080BDF90A00BDF912108842FA
:1052700002DABDF90A0001E0BDF91200BDF906101D
:10528000BDF90E20914202DABDF9061001E0BDF928
:105290000E1088420BDABDF90A00BDF912108842DF
:1052A00002DABDF90A000DE0BDF912000AE0BDF90D
:1052B0000600BDF90E10884202DABDF9060001E0D1
:1052C000BDF90E006080BDF90A00BDF912108842D8
:1052D00002DDBDF90A0001E0BDF91200BDF90610BA
:1052E000BDF90E20914202DDBDF9061001E0BDF9C5
:1052F0000E1088420BDDBDF90A00BDF9121088427C
:1053000002DDBDF90A000DE0BDF912000AE0BDF9A9
:105310000600BDF90E10884202DDBDF9060001E06D
:10532000BDF90E00E08000BF60E62DE9F74F86B0C2
:10533000044620680590B4F908100798A0EB01080E
:10534000B4F90A100898A0EB0109E089B0F5807F54
:1053500013D1206B00FB08F0E16A01FB1901606AC0
:1053600000EBA10BE06A00FB08F0216B01FB0901D7
:10537000A06A00EBA10004902FE0A08980B9A06B87
:1053800000FB08F04FEA6018A06B00FB09F04FEA41
:105390006019606A00EB080BA06A484404901CE0A6
:1053A000A06B00FB08F04FEA6018A06B00FB09F04F
:1053B0004FEA6019206B00FB08F0E16A01FB19015C
:1053C000606A00EBA12BE06A00FB08F0216B01FB97
:1053D0000901A06A00EBA12004904FEA2B26049853
:1053E0000712B4F90400B04203DC002009B0BDE8A4
:1053F000F08F002E01DA0020F8E7B4F90600B84279
:1054000001DC0020F2E7002F01DA0020EEE7342073
:10541000005DC0F3800050B33420005DC0F3400055
:1054200078B90225B4F904007843684306FB050AFD
:10543000059800EB0A012A4604F114001DF0BDF89E
:105440002CE00325B4F904007843684306FB050A01
:105450006A1E059800EB0A0104F114001DF0ADF876
:105460000AEB0500401E0599095CA17516E04FF096
:10547000000A0025208A03463AB231B2019004F1B5
:10548000180019F087FD0290BDF80800A0823AB21A
:1054900031B204F1180019F0DDFCA0753420005D74
:1054A00000F00100B0B14FF47F40002100F47C42D5
:1054B00041EA5211C0F3C40211430191BDF8042026
:1054C00011460291A08ABDF80810884201D100203F
:1054D0008CE700BFE07C08B9012087E70FFA8BF169
:1054E000A187049801B2E18731B24020015339B25B
:1054F00042200153C4F844A084F84850204600F0EC
:1055000003F80390039871E72DE9F04F8DB004463E
:10551000D4F8009094F83C000C9094F83E000B9066
:105520000C9870280BDA4FF0FF35B4F9400028448E
:10553000002800DA00250C988030C7B213E00C98E0
:1055400090280EDD0125B4F940002844B4F9041078
:10555000884200DB00250C98C0F1FF008030C7B204
:1055600001E00025FF270B9870280CDA4FF0FF367A
:10557000B4F942003044002800DA00260B9880304D
:1055800000F0FF0815E00B9890280FDD0126B4F914
:1055900042003044B4F90610884200DB00260B9824
:1055A000C0F1FF00803000F0FF0802E000264FF05D
:1055B000FF08A08A0A90A07D069000200590049024
:1055C00003903420005DC0F3800000285BD094F885
:1055D0004800626C00FB052000EB0901022209A8CB
:1055E0001CF0EBFFB4F9040094F848205043626CBF
:1055F00000FB062000EB0901022208A81CF0DDFFD9
:10560000B4F9040094F848205043626C00FB062271
:1056100094F8480000FB052000EB0901022207A8CE
:105620001CF0CBFF3420005DC0F3400000287ED08A
:1056300094F84800616C00FB05110844401E19F8FD
:1056400000000590B4F9040094F848104843616CD8
:1056500000FB061194F848000844401E19F80000A9
:105660000490B4F9040094F848104843616C00FBBE
:10567000061194F8480000FB05110844401E19F873
:105680000000039053E0208A0090B4F942204020AB
:10569000005B284401B204F11800009B19F07AFC69
:1056A0000990208A00904220005B304402B2B4F995
:1056B000401004F11800009B19F06CFC0890208A3F
:1056C00000904220005B304402B24020005B28443E
:1056D00001B204F11800009B19F05CFC0790342023
:1056E000005DC0F3400010B3B4F942204020005BDD
:1056F000284401B204F1180019F0ACFB05904220D7
:10570000005B304402B2B4F9401004F1180019F003
:10571000A1FB04904220005B304402B24020005BB9
:10572000284401B204F1180019F094FB0390BA4622
:10573000BB463420005DC0F34000E0B306987843D8
:10574000C7F1FF0C059B03FB0C00C0F30721049875
:105750007843C7F1FF0C039B03FB0C00C0F3072247
:1057600001FB08F0C8F1FF0302FB0300030AA37565
:10577000022905DC022A03DC00200DB0BDE8F08F11
:10578000022901DC4FF00008022A01DC4FF0FF087B
:105790000698022801DC4FF0000A0598022801DC77
:1057A0004FF0FF0A0498022801DC4FF0000B039829
:1057B000022803DC00E002E04FF0FF0B03E0BA46F2
:1057C000BB46FF21A175BAF1000F02D109980290E2
:1057D0000BE0BAF1FF0F02D10A98029005E05246A1
:1057E000DDE9091014F0DCF90290BBF1000F02D1E1
:1057F000079801900BE0BBF1FF0F02D108980190D0
:1058000005E05A46DDE9071014F0CAF90190B8F135
:10581000000F03D1BDF80400A0820FE0B8F1FF0F24
:1058200003D1BDF80800A08208E04246DDE901107E
:1058300014F0B6F90090BDF80000A08201209CE7AA
:105840002DE9F05F0446B4F9080001026162B4F981
:105850000A000102A162B4F90C000A2190FBF1F5E3
:105860006F1CB4F90C0005EB8501A0EB4106684202
:1058700000B226F0CFFD8046784200B226F0CAFD85
:105880008146C5F15A0000B226F0C4FD8246C7F138
:105890005A0000B226F0BEFD8346C6F10A0000FBA6
:1058A00008F009FB06000A2190FBF1F1E162C6F164
:1058B0000A0000FB0AF00BFB06000A2190FBF1F145
:1058C0002163E06A4111E162206B41112163A07CF8
:1058D00019F06FFC3421095D60F30001342001559B
:1058E000A07C19F049FC3421095D60F341013420AA
:1058F0000155A07C042805D0A07C052802D0A07CFE
:10590000062807D13420005D20F00400001D34215A
:10591000085505E03420005D20F0040134200155D5
:1059200021682162A06920F0E000A061A17CA0694B
:1059300061F30400A061A188A06961F39420A061D3
:10594000E188A06961F35F50A061E08900EBD0714C
:10595000491001F5001191FBF0F2A263FF21A1753E
:10596000208AA082BDE8F09F2DE9F7430546164640
:105970000024134C26F04BFA804633462946204635
:10598000019A1AF0C5F807465FB900BF00BF2C2185
:1059900020461CF064FE4FF00040A0620020BDE8ED
:1059A000FE830020A062E06918B9404626F022FA82
:1059B000E061E06908B90120E0612046EFE70000FE
:1059C000B845002010B51421114800F0CFFA1AF0A4
:1059D00051F8044600BF1CB900BF00BF00BFFEE77E
:1059E00000BF14B900BF00BF10BD0A4920461AF01D
:1059F00029F9094920461AF027F9084920461AF0E2
:105A000025F9074920461AF01BF900BFECE7000012
:105A1000A045002091F2010865F7010881F901080D
:105A200059F2010870B504460D46102128461CF0B5
:105A300016FE20680078012804D1208A2880608A18
:105A400068800CE020680078022802D1E068686075
:105A500005E020680078042801D10A2068602068E9
:105A6000406820B1206829464268904701E000BFA5
:105A700000BF70BD2DE9FE430446A66AEEB9A18AB7
:105A8000208A084401B2A182E18A608A084401B2F6
:105A9000E18220460CF059FD06460EB9BDE8FE83B2
:105AA00020460FF08BFE00220921304618F0FAFA4A
:105AB0006078C0F3400000B1F0E7208A10B9608A36
:105AC000002870D000200290019094F83C0000F073
:105AD0000F00032812D130461EF07AFE07463046EA
