:020000040800F2
:1000000038410020DD010008110500080D0400083A
:100010000D050008E9020008B70F00080000000005
:100020000000000000000000000000004501000882
:10003000ED0200080000000089010008290C0008FA
:10004000F7010008F7010008F7010008F7010008B0
:10005000F7010008F7010008F7010008F7010008A0
:10006000F7010008F7010008F7010008F701000890
:10007000F7010008F7010008F7010008F701000880
:10008000F7010008F7010008F7010008F701000870
:10009000F7010008F7010008F7010008F701000860
:1000A000F7010008F7010008F7010008F701000850
:1000B000F7010008F7010008F7010008F701000840
:1000C000F7010008F7010008F7010008F701000830
:1000D000F7010008DD0C0008F7010008F70100082F
:1000E000F7010008F7010008F7010008F701000810
:1000F000F7010008F7010008F7010008F701000800
:10010000F7010008F7010008F7010008F7010008EF
:10011000F7010008F7010008F7010008F7010008DF
:10012000F7010008F7010008F7010008F7010008CF
:10013000DFF80CD000F0C6F800480047D11B0008DB
:1001400038410020224B19680868B0E8F00F80F3AE
:100150000988BFF36F8F4FF0000080F311884EF0D5
:100160000D0E70470000000006480068006880F32C
:10017000088862B661B6BFF34F8FBFF36F8F00DFA1
:1001800000BF00BF08ED00E0EFF30980BFF36F8F01
:100190000F4B1A6820E9F00F106008B54FF05000BF
:1001A00080F31188BFF34F8FBFF36F8F02F0D2FA45
:1001B0004FF0000080F31188BDE808401968086816
:1001C000B0E8F00F80F30988BFF36F8F704700BF6E
:1001D00028000020EFF305807047000006488047A4
:1001E00006480047FEE7FEE7FEE7FEE7FEE7FEE71C
:1001F000FEE7FEE7FEE7FEE77D0C000831010008A0
:100200002DE9F05F0546002092469B46884606464B
:10021000814640241BE0284641464746224600F0DE
:1002200041F853465A46C01A914110D31146184618
:10023000224600F028F82D1A67EB01084F462246A7
:100240000120002100F01FF817EB00094E41201E8D
:10025000A4F10104DFDC484631462A464346BDE8A6
:10026000F09FD2B201E000F8012B491EFBD270478B
:100270000022F6E710B513460A4604461946FFF772
:10028000F0FF204610BD202A04DB203A00FA02F1DC
:10029000002070479140C2F1200320FA03F3194374
:1002A00090407047202A04DB203A21FA02F0002116
:1002B000704721FA02F3D040C2F120029140084376
:1002C00019467047064C074D06E0E06840F0010310
:1002D00094E8070098471034AC42F6D3FFF72CFFA0
:1002E0002C2C00084C2C000800BFFEE770472DE9BD
:1002F000F0410246002500260020002300240027AC
:1003000091F803C00CF00F0591F803C00CF0100C2D
:10031000BCF1000F03D091F802C04CEA050591F83A
:1003200000C0BCF1000F31D0146800202BE04FF06A
:10033000010C0CFA00F3B1F800C00CEA03069E426F
:1003400020D183004FF00F0C0CFA03F7BC4305FAE1
:1003500003FC4CEA040491F803C0BCF1280F06D159
:100360004FF0010C0CFA00FCC2F814C00AE091F83E
:1003700003C0BCF1480F05D14FF0010C0CFA00FC92
:10038000C2F810C0401C0828D1D31460B1F800C0D6
:10039000BCF1FF0F34DD546800202EE000F1080CA2
:1003A0004FF0010808FA0CF3B1F800C00CEA03069C
:1003B0009E4221D183004FF00F0C0CFA03F7BC438F
:1003C00005FA03FC4CEA040491F803C0BCF1280FC1
:1003D00005D100F1080C08FA0CF8C2F8148091F865
:1003E00003C0BCF1480F07D100F1080C4FF0010821
:1003F00008FA0CF8C2F81080401C0828CED35460CC
:10040000BDE8F081416170470161704702A001F0D1
:100410007BF900BFFEE70000486172644661756CBD
:100420007400000042E02248007820B1012803D087
:10043000022837D11EE035E002F08CFA04461D4850
:10044000008800280CDD1C480068201A642807D9A1
:1004500018480188194801F009F80020154908805A
:1004600001F084F828B11348008810B9022010491F
:10047000087017E0124801F047F900F049FF18B979
:1004800010A001F041F902E018A001F03DF90020B0
:1004900007490870074908804FF480710748FFF743
:1004A000E7FE00BF00BF052002F0BCF8BBE700007C
:1004B000B4000020AC000020B0000020383C002038
:1004C000E82B00085B4C6F616465725D20E29C85DF
:1004D00020E5AD97E5BA93E58699E585A5E6889090
:1004E000E58A9FEFBC810A0A000000005B4C6F6147
:1004F0006465725D20E29D8C20E58699E585A5E521
:10050000A4B1E8B4A5EFBC810A0A000000BFFEE771
:100510007047000070B5002100230F22C47804B397
:10052000154C246804F4E064C4F5E064210AC1F1C8
:100530000403CA40447804FA03F184781440214348
:1005400009010E4C0678A155047804F01F0501241A
:10055000AC4005786D11AD0005F1E025C5F800410E
:1005600009E0047804F01F050124AC40044D06782E
:10057000761145F8264070BD0CED00E000E400E087
:1005800080E100E002490143024A11607047000027
:100590000000FA050CED00E029B1064A9269024319
:1005A000044B9A6104E0034A92698243014B9A61C9
:1005B000704700000010024030B5002100220024E6
:1005C00000232D4D6D6805F00C0121B1042905D0E3
:1005D000082923D105E0294D056022E0274D05605B
:1005E0001FE0254D6D6805F47012234D6D6805F40C
:1005F0008034022505EB92421CB9214D554305601C
:100600000BE01D4D6D6805F400351DB11C4D5543C3
:10061000056002E0194D5543056002E0174D056085
:1006200000BF00BF144D6D6805F0F0010909154DBC
:100630006B5C0568DD4045600F4D6D6805F4E06159
:10064000090A104D6B5C4568DD4085600A4D6D6898
:1006500005F46051C90A0B4D6B5C4568DD40C5600F
:10066000054D6D6805F44041890B074D6B5CC5680D
:10067000B5FBF3F5056130BD0010024000127A00B1
:1006800000093D00000000201000002021B1028878
:1006900042F04002028004E002884FF6BF731A4025
:1006A0000280704700B587B00120ADF8040010202B
:1006B0008DF8070003208DF8060001A92C48FFF7EC
:1006C00016FE2020ADF8040018208DF80700032046
:1006D0008DF8060001A92748FFF709FE4020ADF874
:1006E000040004208DF8070001A92248FFF7FFFD50
:1006F0008020ADF8040018208DF8070003208DF845
:10070000060001A91B48FFF7F2FD01210803FFF7CE
:1007100043FF01211420FFF73FFF01211448FFF799
:1007200073FE0020ADF808004FF48270ADF80A00A7
:100730000020ADF80C000220ADF80E000120ADF84D
:1007400010004002ADF812000820ADF8140000209F
:10075000ADF816000720ADF8180002A9064800F011
:100760007FF801210448FFF791FF07B000BD0000AA
:100770000010014000080140003001402DE9F04127
:10078000002400250026002701211048FFF73AFE2B
:100790009F2000F01DF8FF2000F01AF8FF2000F065
:1007A00017F80546FF2000F013F80646FF2000F07A
:1007B0000FF8074601210548FFF726FE280440EA06
:1007C000062040EA07042046BDE8F0810010014001
:1007D00010B504464FF480501849086009E01749E5
:1007E0000868411E154A116018B9002000F05CF835
:1007F00010BD0221124800F025F80028EFD0214654
:100800000F4800F02BF84FF480500C49086009E0C5
:100810000A490868411E094A116018B9012000F010
:1008200043F8E5E70121064800F00CF80028EFD076
:10083000034800F010F8C0B2DAE700008C00002096
:10084000003001400246002013890B400BB101200B
:1008500000E0002070470146888970478181704719
:1008600010B50022028802F441520B884C882343C1
:100870008C882343CC8823430C8923434C8923430E
:100880008C892343CC8923431A430280838B4FF204
:10089000FF74234083830B8A038210BD10B5044686
:1008A0002046FFF795FF10BD10B50446214602A073
:1008B00000F02AFFFF2010BD5B53504920455252E3
:1008C0004F525D2054696D656F75742120636F64AC
:1008D000653D25640D0A000070B504460D461048BC
:1008E000007818B10FA000F00FFF70BD2946204618
:1008F00000F04AFE18B117A000F006FFF5E700204F
:100900001C4908804FF480711B48FFF7B1FC01209F
:100910000349087019A000F0F7FE00BFE5E70000EA
:10092000B40000205B4C6F616465725D20E5BF9987
:10093000EFBC8CE8AFB7E7AD89E5BE85E4B88AE4E3
:10094000B880E6ACA1E4BCA0E8BE93E5AE8CE68836
:10095000900A00005B4C6F616465725D2053747295
:1009600065616D537461727420E5A4B1E8B4A50AA1
:1009700000000000AC000020383C00205B4C6F61A0
:100980006465725D20E5B7B2E5B0B1E7BBAAEFBC24
:100990008CE8AFB7E58F91E98081E69687E4BBB636
:1009A0002E2E2E0A0000000010B500F001F810BD38
:1009B0000CB50020019000903348006840F480306E
:1009C0003149086000BF3048006800F400300090F2
:1009D0000198401C0190009818B90198B0F5A06FDB
:1009E000F1D12948006800F4003010B101200090D6
:1009F00001E0002000900098012843D123480068BE
:100A000040F01000214908600846006820F003000B
:100A100008600846006840F0020008601A48406814
:100A2000194948600846406848600846406840F4F4
:100A3000806048600846406820F47C1048600846A2
:100A4000406840F4E81048600846006840F0807054
:100A5000086000BF0C48006800F000700028F9D062
:100A60000948406820F0030007494860084640688C
:100A700040F00200486000BF0348406800F00C00EE
:100A80000828F9D10CBD00000010024000200240EF
:100A900000F0F8FA01F054F917A000F035FE21A09B
:100AA00000F032FE00F08AFB0446C01704EB9050C1
:100AB000811224A000F028FE28A000F025FE32A01C
:100AC00000F022FE3FA000F01FFE032408E02146B4
:100AD00047A000F019FE4FF47A7001F0A3FD641EE8
:100AE000002CF4DC45490020FFF7F6FE03E04FF44C
:100AF000FA7001F097FDFAE70A3D3D3D3D3D3D3D71
:100B00003D3D3D3D3D3D3D3D3D3D3D3D3D3D3D3D15
:100B10003D3D3D3D3D3D3D3D3D3D3D3D3D3D3D3D05
:100B20003D0A0000202057323551363420E5AD977C
:100B3000E5BA93E783A7E5BD95E6B58BE8AF950ADF
:100B4000000000002020E589A9E4BD99E7A9BAE9E1
:100B500097B43A202564204B420A00003D3D3D3DBC
:100B60003D3D3D3D3D3D3D3D3D3D3D3D3D3D3D3DB5
:100B70003D3D3D3D3D3D3D3D3D3D3D3D3D3D3D3DA5
:100B80003D3D3D3D0A000000202033E7A792E5905F
:100B90008EE887AAE58AA8E8A7A6E58F91E4B88B36
:100BA000E8BDBDEFBC8CE8AFB7E58786E5A487E577
:100BB000A5BD2066697265546F6F6C732E2E2E0A68
:100BC000000000003D3D3D3D3D3D3D3D3D3D3D3D49
:100BD0003D3D3D3D3D3D3D3D3D3D3D3D3D3D3D3D45
:100BE0003D3D3D3D3D3D3D3D3D3D3D3D0A0A000015
:100BF000202025642E2E2E0D0A00000000902600D5
:100C0000042808D14FF0E021096941F004014FF0B8
:100C1000E022116107E04FF0E021096921F00401B1
:100C20004FF0E0221161704710B501F083FE0128FA
:100C300001D001F035FE10BD00B585B06846FFF764
:100C4000BBFC0420FFF7DCFF0B49009808604FF461
:100C50007A710098B0FBF1F04FF0E021486108464E
:100C6000006940F0020008610846006940F0010098
:100C7000086105B000BD00008800002010B51348D1
:100C8000006840F0010011490860084640681049BA
:100C900008400E494860084600680E4908400B4964
:100CA00008600846006820F4802008600846406814
:100CB00020F4FE0048604FF41F008860FFF774FEC8
:100CC0004FF000600449086010BD000000100240B1
:100CD0000000FFF8FFFFF6FE08ED00E010B540F25F
:100CE0002551174800F0A3F800B3154800F05AF951
:100CF000C4B214480078012817D101F02BFE124924
:100D00000860124801880088401C104A1080104872
:100D1000445410460088FF2807DD4FF480710C48CA
:100D200000F0A4FB00200949088000BF4FF458716F
:100D3000034800F07CF810B1014800F033F910BD11
:100D400000380140B4000020B0000020AC000020BA
:100D5000383C002021B1828942F40052828104E0B3
:100D600082894DF6FF731A408281704700B587B0C3
:100D700001210420FFF710FC01218803FFF70CFC80
:100D80004FF40070ADF8180018208DF81B000320F8
:100D90008DF81A0006A91D48FFF7A9FA4FF48060E4
:100DA000ADF8180004208DF81B0006A91748FFF7BE
:100DB0009EFA4FF4E13002900020ADF80C00ADF83F
:100DC0000E00ADF81000ADF814000C20ADF81200C4
:100DD00002A90F4800F07AF801210D48FFF7BAFF89
:100DE000012240F225510A4800F04BF825208DF8E9
:100DF000040001208DF805008DF806008DF807002D
:100E000001A8FFF787FB07B000BD00000008014004
:100E10000038014002460020B1F5007F00D100BF3C
:100E200013880B400BB1012000E00020704770B523
:100E30000246002400230025002040F66A16B14235
:100E400000D100BFC1F3421501F01F03012606FACD
:100E500003F3012D02D19689334006E0022D02D121
:100E6000168A334001E0968A33400C12012606FAB6
:100E700004F41688344013B10CB1012000E00020C6
:100E800070BDF0B50346002400260025002040F682
:100E90006A17B94200D100BF1846C1F3421401F0ED
:100EA0001F06012707FA06F5012C01D10C3004E0DA
:100EB000022C01D1103000E014301AB107682F4322
:100EC000076002E00768AF430760F0BD2DE9F04717
:100ED00086B005460E460024A24600BFA146002764
:100EE000B08900B100BF2F462C8A4CF6FF70044039
:100EF000F08804432C82AC894EF6F3100440B0888D
:100F000031890843718908430443AC81AC8A4FF6A8
:100F1000FF400440B0890443AC8201A8FFF74CFBBA
:100F20001F48874202D1DDF810A001E0DDF80CA0D7
:100F3000A88900F4004040B10AEBCA0000EB0A1097
:100F400031684900B0FBF1F807E00AEBCA0000EB9A
:100F50000A1031688900B0FBF1F86420B8FBF0F0AA
:100F600004012009642101FB1089A88900F40040D4
:100F700040B1322000EBC900B0FBF1F000F00700F7
:100F8000044308E0322000EB09106421B0FBF1F0CB
:100F900000F00F0004432C8106B0BDE8F08700008C
:100FA0000038014001468888C0F308007047C1F34B
:100FB00008028280704700BFFEE730B50B46002173
:100FC00012E05D5C80EA052000240AE000F40045A0
:100FD00025B141F2210585EA400500E04500A8B2AF
:100FE000641C082CF2D3491C9142EAD330BD0000A6
:100FF00030B54FF48050002118E001EB01120D4B89
:101000009A5C5A2A10D101EB01130A4C2344D3F8FD
:10101000073001EB0114074D2C44D4F803401A1992
:10102000824200D9104600BF4A1C11B28029E4DB7D
:1010300030BD0000B833002070B54FF408650024BF
:1010400004E0204600F044F904F58054B4F5805FD4
:10105000F7D32A460349002000F024FB0020024970
:10106000087070BDB83300209400002010B54FF414
:10107000086422460249002000F0E6F810BD000096
:10108000B833002010B500F0A1F8FFF7EFFFFFF72D
:10109000AFFF0849086000200749087007A000F06A
:1010A00033FB04480068820A024801680DA000F082
:1010B0002BFB10BD90000020940000205B573235C0
:1010C0005136345D20E69687E4BBB6E7B3BBE7BB99
:1010D0009FE5889DE5A78BE58C96E5AE8CE688902C
:1010E0000A000000202020202020202020E4B88BAF
:1010F000E4B880E4B8AAE58FAFE58699E59CB0E551
:101100009D803A2030782530365820282564204BA1
:1011100042290A000246002110E001EB01100A4BAF
:10112000185C5A2808D101EB01101844B0F80100EE
:10113000904201D108467047481C01B28029ECDB7F
:101140004FF0FF30F7E70000B8330020002109E03E
:1011500001EB0110064A105C5A2801D0084670477E
:10116000481C01B28029F3DB4FF0FF30F7E70000A5
:10117000B83300202DE9F04107460C4615463846A5
:10118000FFF7C8FF0646002E03DA4FF0FF30BDE838
:10119000F08134B106EB061007490844D0F8070087
:1011A000206035B106EB061003490844D0F803006F
:1011B00028600020EBE70000B833002070B5FFF78F
:1011C00017FF04464FF40005281B70BD10B5FFF74C
:1011D00069FA01210148FFF717F910BD001001401D
:1011E0002DE9F04104460F4615460DB9BDE8F081E2
:1011F000B5F5807F01DD4FF4807500F043FA0121E1
:101200001048FFF7FFF80220FFF748FBC4F3074040
:10121000FFF744FBC4F30720FFF740FBE0B2FFF702
:101220003DFB002604E0B85DFFF738FB701C86B27A
:10123000AE42F8DB01210348FFF7E6F800F012FAAE
:1012400000BFD3E7001001402DE9F04104460F46EE
:1012500016460EB9BDE8F08101211048FFF7D2F81B
:101260000320FFF71BFBC4F30740FFF717FBC4F392
:101270000720FFF713FBE0B2FFF710FB002504E0A7
:10128000FF20FFF70BFB78556D1CB542F8D3012109
:101290000248FFF7B9F800BFDCE70000001001408A
:1012A00010B5FFF76BFA10BD10B501210748FFF725
:1012B000A9F80520FFF7F2FAFF20FFF7EFFA04463E
:1012C00001210248FFF7A0F8204610BD00100140A0
:1012D00010B5044600F0D6F901210C48FFF792F84A
:1012E0002020FFF7DBFAC4F30740FFF7D7FAC4F377
:1012F0000720FFF7D3FAE0B2FFF7D0FA0121034845
:10130000FFF782F800F0AEF910BD000000100140B8
:10131000F0B5C1B0002536480068364909688842F2
:1013200009D0334802683348016833A000F0ECF973
:10133000681E41B0F0BD4FF6FF761BE02D480068F7
:10134000401BB0F5807F02D94FF4807002E029483D
:101350000068401B07463549096848193A4601A903
:10136000FFF772FF3A4601A93046FFF726FE064610
:101370003D4400BF1F4800688542DFD3FFF7E6FE0B
:101380000446002C02DA6FF00100D2E75A2004EB89
:101390000411274A50542748008804EB04111144D3
:1013A000A1F801001348006804EB04111144C1F8CE
:1013B00003001E48006804EB04111144C1F8070043
:1013C00004EB041011460844A0F80B6001201A49F0
:1013D0000870FFF731FEFFF70BFE18490860324630
:1013E0001448016816A000F08FF90020A1E7000062
:1013F000A4000020A00000205B53747265616D5D45
:1014000020E695B0E68DAEE4B88DE5AE8CE695B4F9
:10141000EFBC81E9A284E69C9F20256C752C20E519
:10142000AE9EE9998520256C750A00009800002081
:10143000B83300209C000020940000209000002081
:101440005B53747265616D5D20E29C8520E5AE8C16
:10145000E68890EFBC8169643D25752C204352439A
:101460003D3078253034580A000000002DE9F84F4F
:1014700007460C4600253048006830490968461880
:101480002F48D0F800A007B114B90020BDE8F88FAC
:101490002A48006820442B490968884202D94FF045
:1014A000FF30F3E71AE0F0B2C0F58079601B4845E1
:1014B00001D9484600E0601B80464FEA163BD34501
:1014C00003D03046FFF704FFDA461FFA88F2791995
:1014D0003046FFF785FE4644454400BFA542E2D3AF
:1014E000164800682044154908601548C0F800A057
:1014F00008460088C0F30B00A04205D308460068E8
:1015000010490968884214D30C4800686421A0FB84
:1015100001B001460B48002302685846FEF770FEF2
:1015200003460090074802680448016806A000F0DE
:10153000EBF80020AAE7000098000020A40000209B
:10154000A8000020A00000205B53747265616D5DEF
:1015500020E8BF9BE5BAA63A20256C75202F2025F0
:101560006C752028256C752525290A00044800681B
:1015700004490968884201D3012070470020FCE734
:10158000A4000020A000002070B506460C4614B947
:101590006FF0020070BD3046FFF7BCFD0546002D20
:1015A00007DBA52005EB0511134A50540120134910
:1015B0000870FFF71DFD12490860084600682044C6
:1015C000B0F5000F05D90FA000F09EF84FF0FF30E6
:1015D000E0E71348066013480460002012490860E1
:1015E000401E12490860064822463146036810A092
:1015F00000F08AF80020CDE7B833002094000020E6
:10160000980000205B53747265616D5D20E7A9BA94
:10161000E997B4E4B88DE8B6B3EFBC810A000000E6
:101620009C000020A0000020A4000020A8000020B2
:101630005B53747265616D5D20E5BC80E5A78BE648
:101640008EA5E694B62069643D25752C2073697AD1
:10165000653D256C752C20616464723D30782530C1
:1016600036580A0010B56FF07F4403E0601E041E78
:1016700000D105E0FFF718FE00F001000028F5D1C9
:1016800000BF10BD10B501210548FEF7BBFE0620C6
:10169000FFF704F901210248FEF7B6FE10BD000075
:1016A000001001402DE9FE4F80468946924656467D
:1016B00044464FF0000B4FF0FF3002901EE0E0B2C6
:1016C00001900198C0F5807000900098864201D288
:1016D000304600E000980546270B0298874203D069
:1016E0002046FFF7F5FD0297AAB209EB0B01204651
:1016F000FFF776FD2C44AB44761B00BF002EDED1F5
:101700000020BDE8FE8F00000FB4054B10B503A903
:10171000044A029800F018F810BC5DF814FB0000B1
:10172000AD1B0008D000002002E008C8121F08C14D
:10173000002AFAD170477047002001E001C1121F52
:10174000002AFBD1704700002DE9FF4F8DB00F46F6
:101750000546002606E025280BD0DDE90F1290474C
:101760006D1C761C28780028F5D111B03046BDE8F4
:10177000F08F0024A246A1460122EC4900E0044378
:1017800015F8013F203B02FA03F00842F7D1287810
:101790002A2810D06FF02F022878A0F130010929F3
:1017A00014D80AEB8A0102EB410144F0020400EB79
:1017B000010A6D1CF0E701CF5FEA000A03D544F48B
:1017C0000054CAF1000A44F002046D1C28782E2847
:1017D00017D115F8010F44F004042A280ED06FF039
:1017E0002F022878A0F1300109290AD809EB8901D4
:1017F00002EB410100EB01096D1CF2E757F8049B75
:101800006D1C28786C280FD006DC4C2817D068286F
:101810000DD06A2814D104E0742810D07A280FD192
:101820000DE044F400140AE044F4801401E044F4B0
:1018300040146978814202D104F580146D1C6D1C3E
:101840002A786E2A1FD00CDC632A31D004DC002AEF
:101850008BD0582A11D1A3E0642A68D0692A0CD110
:1018600065E0732A2ED004DC6F2A73D0702A04D16D
:101870009BE0752A6FD0782A6ED01046DDE90F12F2
:101880009047761C50E1C4F30250022806D003288A
:1018900009D0042801CF09D0066045E101CFF11736
:1018A000C0E9006140E101CF06803DE106703BE107
:1018B00017F8040B8DF8000000208DF80100EB46AE
:1018C000012003E057F804BB4FF0FF3061074FF0F1
:1018D000000102D40DE008F10101884649450FDA04
:1018E0008045F8DB1BF808100029F4D108E008F166
:1018F000010188468142FADB1BF808100029F6D165
:10190000DDE90F23AAEB08008146214600F036F9F5
:10191000304400EB080604E0DDE90F121BF8010B70
:101920009047B8F10108F7D221464846F7E00A216E
:10193000C4F302534FF0000B0891022B04D001CFE7
:10194000C117032B09D00AE0FF1D27F00707F7E8AE
:10195000020108E032E01FE020E000B2C117042BD2
:1019600001D140B2C117031E71F1000307DA4FF035
:10197000000CD0EB0C006CEB01012D2302E02305E1
:1019800004D52B238DF82430012303E0E30701D095
:101990002023F7E7984658E00A2110E010210EE0D6
:1019A00010204FF0000B08900CE010214FF0000BBE
:1019B00044F004044FF00809089103E008214FF0B7
:1019C000000B0891C4F30253022B04D001CF002175
:1019D000032B06D006E0FF1D27F00707F7E80201FA
:1019E00003E080B2042B00D1C0B24FF000082307FF
:1019F0002BD5702A07D0DDF820C08CF0100C5CEAE3
:101A00000B0C05D00EE040238DF82430012308E0B4
:101A100050EA010306D030238DF824308DF82520BC
:101A200002239846DDF820C08CF0080C5CEA0B0C11
:101A30000BD150EA010301D1630706D530238DF89D
:101A400024304FF00108A9F10109582A04D038A226
:101A50000B9208AA0A920BE03AA2F9E75B46089AB1
:101A6000FEF7CEFB0B9B9B5C0A9A521E0A921370E8
:101A700050EA0102F2D10A98ADEB000000F1200B10
:101A8000600702D524F4803401E04FF00109D94504
:101A900002DDA9EB0B0000E0002000EB0B0141444C
:101AA0000890AAEB010AE00306D4DDE90F232146E2
:101AB000504600F063F806444FF0000908E009A919
:101AC00011F80900DDE90F12904709F10109761CB0
:101AD000C145F4DBE0030CD5DDE90F232146504678
:101AE00000F04CF8064404E0DDE90F123020904786
:101AF000761C0899481E08900029F5DC08E00A9831
:101B00000A990078491C0A91DDE90F129047761C6A
:101B1000BBF10001ABF1010BF1DC21465046DDE9E0
:101B20000F2300F019F806446D1C1BE6092801007C
:101B30003031323334353637383961626364656643
:101B40000000000030313233343536373839414205
:101B500043444546000000002DE9F04104460025BD
:101B60001E461746880404D405E039462020B047B5
:101B70006D1C641EF9D52846BDE8F0812DE9F041C1
:101B8000044600251E469046C80301D5302700E0D4
:101B90002027880404D505E041463846B0476D1C2F
:101BA000641EF9D52846BDE8F081000070B50446F2
:101BB0000D46E1B20548FFF7FAF900BF802103485E
:101BC000FFF728F90028F9D0204670BD0038014001
:101BD0001CB54FF44070FEF7D5FCFFF7C7F817A00F
:101BE000FFF792FD21A0FFF78FFDFFF7EFFAFFF758
:101BF00057FB0446214625A0FFF786FD31A0FFF7DD
:101C000083FDFFF719F83B48012100234A02CDE983
:101C1000001039A13B4800F05DFE3B480221002343
:101C2000CA01CDE9001039A13B4800F053FE00F095
:101C300035FD3AA0FFF768FD00BFFEE70D0A3D3D08
:101C40003D3D3D3D3D3D2057323551363420E5ADDB
:101C500097E5BA93E783A7E5BD95E6B58BE8AF9521
:101C6000203D3D3D3D3D3D3D3D0D0A005B312F3268
:101C70005D20555341525420E5889DE5A78BE58CA6
:101C800096E5AE8CE6AF950D0A0000005B322F3270
:101C90005D2057323551363420E7A1ACE4BBB6E5C0
:101CA000889DE5A78BE58C96E5AE8CE6AF952C205C
:101CB000466C617368204944203D20307825580DDA
:101CC0000A0000003D3D3D3D3D3D3D3D3D3D3D3D2E
:101CD0003D3D3D3D3D3D3D3D3D3D3D3D3D3D3D3D34
:101CE0003D3D3D3D3D3D3D3D3D3D3D3D0D0A0D0AEA
:101CF00000000000BC0000205374617274557054E1
:101D000061736B00910A0008B80000204C6F616499
:101D100065725461736B0000250400085B464154F2
:101D2000414C5D20E8B083E5BAA6E599A8E590AFFF
:101D3000E58AA8E5A4B1E8B4A5EFBC810D0A0000CE
:101D40001CB56A4601A90020FFF714FA58B90849E2
:101D50000198086001200749087007A0DDE900210B
:101D6000FFF7D2FC02E013A0FFF7CEFC1CBD000081
:101D7000C8000020CC0000205B466F6E745D2053CD
:101D800043485F313620E5AD97E5BA93E5B0B1E75A
:101D9000BBAAEFBC8C466C617368416464723D30D1
:101DA00078253036582C2053697A653D256C750AA4
:101DB000000000005B466F6E745D20E29AA0EFB8F1
:101DC0008F205343485F313620E5AD97E5BA93E65F
:101DD0009CAAE59CA820466C61736820E4B8ADE637
:101DE00089BEE588B0202869643D30290A000000DA
:101DF0002DE9F04105460E461C4807681C4800685E
:101E0000001D00F0F3FA50B91948006890F82C1042
:101E10000120884017490968814316480160681C01
:101E200038B936B112480168091D134800F01CFB8F
:101E30001AE07C190E4800684460BC4207D20C4886
:101E40000168091D0D48006800F0F4FA0CE008482C
:101E50000168091D0A48006800F0ECFA09480068AA
:101E6000844201D207480460BDE8F0813C000020B4
:101E70002800002040000020A403002030000020A3
:101E80002C0000205800002010B5044600F0F8FA9D
:101E900023480068401C224908602248006840B975
:101EA000204804600846006801280DD100F036F98A
:101EB0000AE01D48006838B91A480068C06AE16A3B
:101EC000884201D81748046018480068401C174928
:101ED000086094F82C1001208840154909680843CF
:101EE00013490860E16A01EB8101124A02EB8100AB
:101EF000211D00F0B9FA00F0FFFA0B48006868B144
:101F000008480068C06AE16A884207D24FF08050F2
:101F100009490860BFF34F8FBFF36F8F10BD0000FA
:101F20003800002028000020440000205400002039
:101F300040000020D400002004ED00E070B523E054
:101F400000F000FC1348006808B9012000E0002000
:101F5000054600F0B7FDBDB900F092FA0D48C06823
:101F6000C468201D00F042FA0B480068401E0A4970
:101F700008600A480068401E0849086000F0BCFA82
:101F8000204600F00DF800BF044800680028D7D1B3
:101F900070BD0000900300203800002034000020B5
:101FA00010B50446206B00F0D7FA204600F0D4FAB2
:101FB00010BD000030B54FF44053174800F007043F
:101FC0002CB1C01D20F00700134C041B1B1B024644
:101FD000124C22600024114D6C60D018083820F09B
:101FE00007000F4C206000240D4D2D686C600C4DD7
:101FF0002D682C601146441A4C60094C24680C6012
:10200000084D4C682C60084D4C682C604FF0004423
:10201000064D2C6030BD0000B80300206400002095
:102020006C00002074000020700000207800002068
:1020300000BFFFF783FF064800680128F9D94FF079
:10204000805004490860BFF34F8FBFF36F8FF0E7F4
:10205000D400002004ED00E02DE9FF5F81460E462C
:102060009246DDE90E7B109CAAF10100216B01EB89
:10207000800828F0070808F0070008B9012000E0F0
:10208000002028B940F22B321AA120A0FFF73CFB18
:10209000002507E0715D04F134004155705D00B921
:1020A00002E06D1C102DF5D300BF00214320015527
:1020B000202F00D31F27E762201D00F0B8F904F19C
:1020C000180000F0B4F92461C7F12000A061646237
:1020D0000020606484F8480049464046039A00F0B6
:1020E00073F92060BBF1000F01D0CBF80040BDE8D0
:1020F000FF9F00004672656552544F535C737263D4
:102100005C7461736B732E63000000004572726F24
:10211000723A25732C25640D0A00000010B50024C6
:1021200007E004EB84010F4A02EB810000F072F932
:10213000641C202CF5D30C4800F06CF90B4800F01F
:1021400069F90B4800F066F90A4800F063F90A489B
:1021500000F060F90448094908600448084908602B
:1021600010BD0000D40000205403002068030020AC
:102170007C03002090030020A40300202C000020FA
:102180003000002010B50146164800E000680368E2
:102190008B42FBD30246436813448B4204D143680D
:1021A0004C682344436001460A464B681344046864
:1021B000A34211D10C4C03682468A34208D04B6899
:1021C0000468646823444B6003681B680B6005E087
:1021D000054B1B680B6001E003680B60884200D070
:1021E000016010BD640000206C0000200A490968ED
:1021F000096809B9012100E0002121B14FF0FF3148
:10220000064A116006E004490968C968C868034ABB
:1022100041681160704700002C0000205800002029
:102220000B480068401C08B9012000E0002020B9DC
:10223000F42208A10EA0FFF767FA00BF502080F338
:102240001188BFF34F8FBFF36F8F00BF00BFFEE752
:102250007C0000204672656552544F535C706F726B
:102260007461626C655C706F72742E6300000000B4
:102270004572726F723A25732C25640D0A000000B6
:102280002DE9F04104464FF0000800F05BFA3E48AB
:10229000006808B9FFF78EFE3C480068204000281F
:1022A0005FD1A4B1083404F0070080B104F0070046
:1022B000C0F10800044404F0070008B9012000E060
:1022C000002020B9BF2232A138A0FFF71DFA002C50
:1022D00047D03A480068844243D8394E30460568B2
:1022E00001E02E462D686868A04202D228680028C6
:1022F000F7D125480068854233D0306800F10808DE
:10230000286830606868001B102813D92F1907F05F
:10231000070008B9012000E0002020B9EC221CA130
:1023200022A0FFF7F1F96868001B78606C603846FE
:10233000FFF728FF214968680968081A1F490860E3
:10234000084600681F490968884203D21B48006894
:102350001C4908600D4968680968084368600020E6
:10236000286000F0AFFB08F0070008B9012000E08A
:10237000002028B94FF4967205A10CA0FFF7C4F90C
:102380004046BDE8F08100006C000020780000208D
:102390004672656552544F535C706F727461626C23
:1023A000655C686561705F342E6300004572726F12
:1023B000723A25732C25640D0A000000700000207D
:1023C0006400002074000020001F4FF08073036041
:1023D000001F21F001030360001F034B036014384A
:1023E00002602038704700002122000801460A6977
:1023F000D1E901309860D1E9010358605068884202
:1024000001D188685060002008611068401E10608B
:102410001068704700F1080141604FF0FF318160A2
:1024200000F10801C16001610021016070470021D5
:102430000161704710B502460B685C1C0CB910694D
:1024400007E002F1080000E04068446824689C420C
:10245000FAD944684C604C68A160886041600A61A8
:102460001468641C146010BD42684A6093688B60F5
:10247000936859609160086103685B1C0360704752
:1024800010B500BF502080F31188BFF34F8FBFF30A
:102490006F8F00BF0B480068401C0A49086008465F
:1024A000006801280DD108480068C0B208B90120B1
:1024B00000E0002028B94FF4BD7204A10AA0FFF784
:1024C00023F910BD7C00002004ED00E04672656534
:1024D00052544F535C706F727461626C655C706FC4
:1024E00072742E63000000004572726F723A257399
:1024F0002C25640D0A00000010B50B48006828B9AF
:1025000040F2811209A110A0FFF7FEF8064800680A
:10251000401E054908600846006820B9002080F385
:10252000118800BF00BF10BD7C00002046726565A9
:1025300052544F535C706F727461626C655C706F63
:1025400072742E63000000004572726F723A257338
:102550002C25640D0A00000070B506463546002E95
:1025600035D0083D2C461A4960680968084008B112
:10257000012000E0002028B94FF4A07215A11CA092
:10258000FFF7C2F8206808B9012000E0002028B950
:1025900040F241120FA116A0FFF7B6F80C4960688F
:1025A0000968084098B1206888B9094960680968D5
:1025B0008843606000F0C6F8114960680968084403
:1025C0000F4908602046FFF7DDFD00F07BFA70BD83
:1025D000780000204672656552544F535C706F72EC
:1025E0007461626C655C686561705F342E630000C5
:1025F0004572726F723A25732C25640D0A00000033
:1026000070000020064800684FF47A71B0FBF1F0CA
:10261000401E4FF0E021486107200861704700002C
:102620001400002070B504460025ACB10F480068C6
:1026300008B9012000E0002028B940F2CF420CA1E7
:1026400011A0FFF761F800F07DF800212046FFF7A8
:10265000CFFB00F037FA05463DB94FF080500E49E8
:102660000860BFF34F8FBFF36F8F70BD6000002015
:102670004672656552544F535C7372635C74617348
:102680006B732E63000000004572726F723A2573FF
:102690002C25640D0A00000004ED00E01CB518486C
:1026A00000210B468022CDE9001016A1174800F04A
:1026B00011F90446012C15D100BF502080F3118878
:1026C000BFF34F8FBFF36F8F00BF4FF0FF30104944
:1026D000086001200F49086000200F49086000F0E1
:1026E0008FF80BE0601C08B1012000E0002028B941
:1026F00040F2847209A10FA0FFF706F81CBD00008C
:102700005C00002049444C450000000031200008D6
:1027100058000020440000203C00002046726565FF
:1027200052544F535C7372635C7461736B732E63AA
:10273000000000004572726F723A25732C25640DFB
:102740000A00000002480068401C01490860704708
:102750006000002010B51B48006818B101201A491C
:1027600008602DE000201849086018480068B0FA99
:1027700080F0C0F11F0404EB8400154951F82000DB
:1027800008B1012000E0002028B940F6F62211A18E
:1027900016A0FEF7B9FF04EB84010D4A02EB81009D
:1027A00041684968416000F1080142688A4202D1EB
:1027B0004168496841604168C968104A116000BFBA
:1027C00010BD0000600000204C00002040000020F0
:1027D000D40000204672656552544F535C73726397
:1027E0005C7461736B732E63000000004572726F3E
:1027F000723A25732C25640D0A0000002800002081
:102800001CB52248014609780191FF21024611704A
:102810000146097800919DF8001001F050011C4A12
:10282000117007211B4A116009E01A490968491E05
:10283000184A11609DF800104906090E00919DF894
:10284000001001F080018029EFD0124909680902C7
:10285000104A11601146098801F4E06111600B4AC9
:10286000019911700C48006840F470000A49086032
:102870000846006840F070400860FFF7C3FE002083
:1028800006490860FDF770FC00201CBD00E400E074
:10289000800000208400002020ED00E07C0000206B
:1028A00010B500BF502080F31188BFF34F8FBFF3E6
:1028B0006F8F00BF00F054F818B14FF080500449FA
:1028C000086000BF002080F3118800BF10BD000029
:1028D00004ED00E02DE9FF4F85B08046894617469C
:1028E000DDE912ABB800FFF7CBFC064656B14C2031
:1028F000FFF7C6FC04460CB1266304E03046FFF740
:102900002BFE00E000247CB10020CDE900ABCDE936
:1029100002403A4649464046089BFFF79DFB204649
:10292000FFF7B2FA012501E04FF0FF35284609B064
:10293000BDE8F08F0549096809B9012005E004499F
:10294000096809B9022000E0002070474400002017
:102950006000002001490868704700003C0000202A
:102960002DE9F0414FF0000841480068002872D17D
:1029700040480068451C3F480560EDB93E48006886
:10298000006808B9012000E0002028B940F6D912FB
:102990003AA140A0FEF7B8FE3748076841480068F2
:1029A000354908603F4807603F480068401C3E4981
:1029B0000860FFF71BFC00BF3C48006885423CD321
:1029C00000BF2D480068006808B9012000E0002021
:1029D00020B14FF0FF30354908602DE026480068EF
:1029E000C068C4686668B54202D23048066023E019
:1029F000201DFFF7FBFCA06A18B104F11800FFF7D7
:102A0000F5FC94F82C1001208840294909680843F6
:102A100027490860E16A01EB8101264A02EB810047
:102A2000211DFFF721FD2449E06A0968C96A88422F
:102A3000C7D34FF00108C4E700BF1F480068C06A51
:102A400000EB80001B4951F82000012801D94FF00C
:102A5000010805E0FFE719480068401C17490860B5
:102A60001748006808B14FF001084046BDE8F08102
:102A7000600000203C0000202C00002046726565AC
:102A800052544F535C7372635C7461736B732E6347
:102A9000000000004572726F723A25732C25640D98
:102AA0000A000000300000205000002058000020E4
:102AB00040000020D4000020280000204800002012
:102AC0004C00002070B5002400263448006828B966
:102AD0004FF4FD6232A138A0FEF716FEFFF7D0FCDE
:102AE0002E480068401E2D490860084600680028EE
:102AF0004FD13548006800284BD024E03348C068E7
:102B0000C46804F11800FFF771FC201DFFF76EFC8C
:102B100094F82C10012088402D49096808432C495D
:102B20000860E16A01EB81012A4A02EB8100211D64
:102B3000FFF79AFC2849E06A0968C96A884202D30B
:102B40000120264908602148006808B9012000E0FA
:102B500000200028D2D00CB1FFF748FB20480568C0
:102B600065B100BFFFF7FCFE10B101201B490860F2
:102B70006D1E002DF6D10020194908601748006825
:102B800038B10126300717490860BFF34F8FBFF3F4
:102B90006F8FFFF7B1FC304670BD00006000002071
:102BA0004672656552544F535C7372635C74617313
:102BB0006B732E63000000004572726F723A2573CA
:102BC0002C25640D0A000000380000207C03002042
:102BD00040000020D4000020280000204C000020ED
:102BE0004800002004ED00E00A5B4C6F61646572F0
:102BF0005D20E585A8E983A8E68EA5E694B6E5AE56
:102C00008CE6AF95EFBC8CE6ADA3E59CA8204352C3
:102C10004320E6A0A1E9AA8C202B20E58699E79B1A
:102C2000AEE5BD952E2E2E0A000000004C2C0008AB
:102C300000000020D400000028170008202D000804
:102C4000D400002064400000381700080000000095
:102C5000010203040102030406070809020406082E
:102C600000A24A040000000000000000010203046A
:102C70000607080900000000000000000000000036
:102C80000000000000000000000000000000000044
:102C90000000000000000000000000000000000034
:102CA0000000000000000000000000000000000024
:102CB0000000000000000000000000000000000014
:102CC0000000000000000000AAAAAAAA000000005C
:102CD000000000000000000000A000000000000054
:102CE00000000000000000000000000000000000E4
:102CF00000000000FFFFFFFF0000000000000000D8
:102D00000000000000000000000000000A00A09F7A
:102D100004000000000000000000000000000000AF
:0400000508000131BD
:00000001FF
